:100000000C9463000C948B000C948B000C948B006C
:100010000C948B000C948B000C948B000C948B0034
:100020000C948B000C948B000C948B000C948B0024
:100030000C948B000C948B000C948B000C948B0014
:100040000C9424080C948B000C9433060C948B00B5
:100050000C948B000C948B000C948B000C948B00F4
:100060000C94DC020C948B0000000000240027009C
:100070002A0000000000250028002B0000000000DE
:1000800023002600290004040404040404040202DA
:100090000202020203030303030301020408102007
:1000A0004080010204081020010204081020000012
:1000B0000007000201000003040600000000000029
:1000C0000000D501EC0611241FBECFEFD8E0DEBF43
:1000D000CDBF11E0A0E0B1E0EEE8F4E102C0059090
:1000E0000D92A432B107D9F712E0A4E2B1E001C049
:1000F0001D92A130B107E1F710E0C6ECD0E004C0DA
:100100002297FE010E94410AC23CD107C9F70E9412
:100110002C060C94450A0C9400000F931F93CF9368
:10012000DF93689F8001699F100D789F100D112447
:10013000C8010E94A900EC01009729F060E070E07E
:10014000A8010E94AB01CE01DF91CF911F910F91C9
:100150000895CF93DF93BC018230910510F462E0E3
:1001600070E0A091FF01B0910002ED01E0E0F0E04D
:1001700040E050E021C0888199818617970769F493
:100180008A819B81309719F09383828304C0909376
:1001900000028093FF01FE0134C06817790738F42C
:1001A0004115510519F08417950708F4AC01FE01BB
:1001B0008A819B819C01E9012097E9F6411551054F
:1001C000A9F1CA01861B970B049708F4BA01E0E075
:1001D000F0E02AC08D919C91119784179507F9F44E
:1001E0006417750781F412968D919C91139730973F
:1001F00019F09383828304C0909300028093FF01DF
:10020000FD0132964CC0CA01861B970BFD01E80F19
:10021000F91F6193719302978D939C9340C0FD01E8
:10022000828193819C01D9011097A1F68091FD01F3
:100230009091FE01892B41F4809117019091180152
:100240009093FE018093FD014091190150911A0194
:100250004115510541F44DB75EB78091150190915C
:100260001601481B590B2091FD013091FE01CA0176
:10027000821B930B8617970780F0AB014E5F5F4F91
:100280008417950750F0420F531F5093FE0140937F
:10029000FD01F9016193719302C0E0E0F0E0CF014C
:1002A000DF91CF910895CF93DF93009709F450C069
:1002B000EC0122971B821A82A091FF01B0910002EB
:1002C000109709F140E050E0AC17BD0708F1BB837F
:1002D000AA83FE0121913191E20FF31FAE17BF07F0
:1002E00079F48D919C911197280F391F2E5F3F4F04
:1002F0003983288312968D919C9113979B838A83CF
:100300004115510571F4D0930002C093FF0120C044
:1003100012968D919C911397AD01009711F0DC011D
:10032000D3CFFA01D383C28321913191E20FF31F1E
:10033000CE17DF0769F488819981280F391F2E5F56
:100340003F4FFA01318320838A819B81938382838B
:10035000DF91CF910895DC0101C06D934150504071
:10036000E0F7089581E080932D01609328011092B9
:100370002B0110922C010895809127019091260164
:10038000891B08959091260180912701981710F0FC
:1003900080E00895E0912401F0912501E90FF11D1D
:1003A00080819F5F9093260108950895DF93CF93F6
:1003B0000F92CDB7DEB7698380912D018823A9F014
:1003C00080912C018032B0F480912B01E0912901C1
:1003D000F0912A01E80FF11D608380912B018F5F5E
:1003E00080932B0180932C0105C0CE01019661E022
:1003F0000E94BF020F90CF91DF9108950E94D60115
:1004000008956091290170912A01809128014091FD
:100410002C0121E00E947A0210922B0110922C01F3
:1004200010922D010895862F60912401709125016D
:10043000413208F040E20E9444021092260180936B
:10044000270108950E941302089580E290E061E080
:1004500070E00E948D0080932401909325011092FA
:1004600026011092270180E290E061E070E00E9496
:100470008D008093290190932A0110922B011092F4
:100480002C010E945E040895982F413210F040E044
:100490002FC080912F018823E1F781E080932F0105
:1004A0008FEF809340011092370140933801990FEC
:1004B00091609093300185EE8093BC0080912F0174
:1004C0008130E1F380913701841710F440913701B6
:1004D000A0913501B091360120E030E007C0FB016A
:1004E000E20FF31F8D9180832F5F3F4F2417B8F3E6
:1004F000842F08951F93582F122F413210F081E05E
:100500003CC080912F018823E1F782E080932F0186
:100510008FEF809340011092370140933801A091F2
:100520003501B0913601FB0102C081918D938E2F70
:10053000861B8417D0F3852F90E0880F991F809336
:10054000300185EE8093BC00112321F080912F01B2
:100550008230E1F3809140018F3F11F480E00DC0C3
:1005600080914001803211F482E007C08091400107
:10057000803311F084E001C083E01F910895482F7B
:10058000613210F081E0089580912F01843011F0E4
:1005900082E0089560933C01A0913901B0913A0145
:1005A000842F9C01F90102C081918D938E2F841BB1
:1005B0008617D0F380E008951F920F920FB60F9226
:1005C00011242F933F934F935F936F937F938F9358
:1005D0009F93AF93BF93EF93FF938091B90090E007
:1005E000887F90708036910509F4E2C081369105CC
:1005F000CCF58832910509F47BC089329105B4F4B9
:100600008031910509F46FC0813191053CF4009768
:1006100009F438C1089709F040C165C088319105D7
:1006200009F466C0809709F038C17FC08034910515
:1006300009F4A3C08134910544F48033910509F491
:100640007FC0C89709F029C186C08035910509F49B
:1006500086C08835910509F495C08834910509F064
:100660001CC19EC08839910509F404C189399105DE
:10067000ECF48837910509F49BC0893791054CF457
:100680008836910509F494C08037910509F005C1B9
:100690008FC08838910509F4EDC08039910509F4BF
:1006A0008DC08038910509F0F8C088C0803B910565
:1006B00009F4B2C0813B91054CF4803A910509F4EC
:1006C00091C0883A910509F0E8C0A6C0803C910528
:1006D00009F4D4C0883C910509F4D0C0883B910549
:1006E00009F0DBC0B1C0809130018093BB00C0C075
:1006F0009091370180913801981778F490913701E3
:10070000E0913501F0913601E90FF11D8081809370
:10071000BB009F5F90933701ABC085ED8093BC0019
:100720008091BC0084FDFCCFB6C080E28093400184
:1007300085ED8093BC008091BC0084FDFCCFABC0F4
:1007400080E38093400185ED8093BC008091BC00E4
:1007500084FDFCCFA0C088E3809340018FC08091CE
:1007600037019091BB00E0913501F0913601E80F1F
:10077000F11D90838F5F80933701909137018091B5
:10078000380174C0809137019091BB00E091350130
:10079000F0913601E80FF11D90838F5F8093370150
:1007A00085ED8093BC008091BC0084FDFCCF73C0BC
:1007B00083E080932F0110923F015AC080913F0146
:1007C000803208F057C080913F019091BB00E091CA
:1007D0003D01F0913E01E80FF11D90838F5F809302
:1007E0003F0146C080913F01803248F480913F0133
:1007F000E0913D01F0913E01E80FF11D1082609102
:100800003F01E0913301F091340180913D019091DD
:100810003E0170E0099532C084E080932F01109270
:100820003B0110923C01E0913101F09132010995B8
:1008300080913C01882341F481E080933C01E09168
:100840003901F0913A01108290913B01E091390118
:10085000F0913A01E90FF11D80818093BB009F5F09
:1008600090933B0190913B0180913C01981710F4CB
:1008700085EC01C085E88093BC000FC085EC8093B7
:10088000BC0009C01092400185ED8093BC008091AE
:10089000BC0084FDFCCF10922F01FF91EF91BF911E
:1008A000AF919F918F917F916F915F914F913F9108
:1008B0002F910F900FBE0F901F90189510922F013F
:1008C000449A459AE9EBF0E080818E7F80838081B5
:1008D0008D7F808388E48093B80085E48093BC009A
:1008E00080E290E061E070E00E948D00809335012D
:1008F0009093360180E290E061E070E00E948D000C
:100900008093390190933A0180E290E061E070E0D9
:100910000E948D0080933D0190933E010895BC019B
:100920008FED91E00E941C0808951F939C01AB017C
:100930008EE291E0B9010E9422028EE291E00E94D3
:10094000BC018230D0F38EE291E00E94C201182FE8
:100950008EE291E00E94C201512F40E0282F30E04A
:10096000242B352BC9011F910895EF92FF920F930D
:100970001F939C017B010EE211E0C801B9010E94A6
:10098000B201C801B7010E94FE01C8010E94010224
:100990001F910F91FF90EF900895EF92FF920F93A8
:1009A0001F939C017B010EE211E0C801B9010E9476
:1009B000B201C80160E070E00E94FE01C801B70109
:1009C0000E94FE01C8010E9401021F910F91FF9039
:1009D000EF90089580E790E060E570E00E94CD041C
:1009E00080E790E062E070E00E94B50480E790E06C
:1009F00062E070E00E94950408950E94940820919E
:100A00005701309158014091590150915A01621B90
:100A1000730B840B950B209155013091560140E0EA
:100A200050E0261737074807590710F080E008956F
:100A30000E94940860935701709358018093590164
:100A400090935A0181E090E0909354018093530178
:100A500068EC70E080E090E00E94A20810925401DF
:100A60001092530181E00895AF92BF92CF92DF922E
:100A7000EF92FF920F931F930E94EA049C019093C0
:100A80004C0180934B0101978C35910520F58091A5
:100A900043019091440190934201809341018091E0
:100AA00045019091460190934401809343018091C8
:100AB00047019091480190934601809345018091B0
:100AC000490190914A0190934801809347013093E6
:100AD0004A0120934901809141019091420123E014
:100AE000893E920710F088EE93E020914301309107
:100AF00044012817390708F4C901209145013091B4
:100B000046012817390708F4C9012091470130919F
:100B10004801BC012817390708F4B901809149013F
:100B200090914A018617970708F4BC0170934E0113
:100B300060934D0100D000D080E090E02FEF30E0D6
:100B400040E050E0EDB7FEB7218332834383548306
:100B50002AE030E040E050E0FDE5EF2EF12C012DE1
:100B6000112DAA24BB2465010E94730970935201C0
:100B700060935101882777FD8095982F2CEB32E008
:100B800040E050E0EDB7FEB72183328343835483C6
:100B90002AE030E040E050E0E8ECAE2EB12CC12C71
:100BA000D12C0E9473097093500160934F01709390
:100BB0005601609355010F900F900F900F908FED9D
:100BC00091E064E171E00E94520780914B019091A5
:100BD0004C010E948F040E94FD04882331F0809113
:100BE0001B01609153010E9426091F910F91FF90F4
:100BF000EF90DF90CF90BF90AF9008958EE291E09C
:100C00000E9425028FED91E040E855E260E070E03F
:100C10000E94700688EE93E0909342018093410118
:100C20009093440180934301909346018093450142
:100C3000909348018093470190934A018093490122
:100C400080911B0161E00E94060968EE73E080E07C
:100C500090E00E94A20808950E94CC080E94FE0520
:100C60000E943405FDCF1F920F920FB60F921124F0
:100C70002F933F934F935F936F937F938F939F93A4
:100C8000AF93BF93EF93FF934091C600E091DB01D8
:100C9000F091DC01CF01019660E870E00E94DB0971
:100CA0009C018091DD019091DE012817390739F010
:100CB000E55AFE4F40833093DC012093DB01FF9126
:100CC000EF91BF91AF919F918F917F916F915F91C4
:100CD0004F913F912F910F900FBE0F901F9018953D
:100CE000AF92BF92CF92DF92EF92FF920F931F933A
:100CF000CF93DF936C017A018B01DC011496AD90E8
:100D0000BC901597CB01BA0122E030E040E050E002
:100D10000E94100A205C3D4B404F5F4FCA01B90151
:100D2000A80197010E94100AC901DA010197A109DF
:100D3000B109292F3A2F4B2F552747FD5A95019678
:100D4000A11DB11DE5012883E601EE81FF818150DF
:100D50008083EA85FB85208141E050E0CA010E8452
:100D600002C0880F991F0A94E2F7282B2083EA8596
:100D7000FB852081CA010F8402C0880F991F0A9445
:100D8000E2F7282B2083EA85FB858081088802C052
:100D9000440F551F0A94E2F7842B8083DF91CF9193
:100DA0001F910F91FF90EF90DF90CF90BF90AF9089
:100DB0000895FC01A085B18521898C9190E0022ED7
:100DC00002C0959587950A94E2F780FFF6CF0484D8
:100DD000F585E02D6083089581E291E09093E00134
:100DE0008093DF018BE591E09093E2018093E10134
:100DF00085EC90E09093E4018093E30184EC90E033
:100E00009093E6018093E50180EC90E09093E801F7
:100E10008093E70181EC90E09093EA018093E901EF
:100E200086EC90E09093EC018093EB0184E080935A
:100E3000ED0183E08093EE0187E08093EF0185E090
:100E40008093F00108950F931F93CF93DF938C014C
:100E5000EB0109C02196D801ED91FC910190F08140
:100E6000E02DC801099568816623A1F7DF91CF9134
:100E70001F910F9108950F931F938C01DC01ED9149
:100E8000FC910190F081E02D6DE00995D801ED9184
:100E9000FC910190F081E02DC8016AE009951F9155
:100EA0000F9108950F931F938C010E942307C8018F
:100EB0000E943B071F910F9108952F923F924F92EE
:100EC0005F926F927F928F929F92AF92BF92CF92DA
:100ED000DF92EF92FF920F931F93DF93CF93CDB7E3
:100EE000DEB7A0970FB6F894DEBF0FBECDBF1C01D2
:100EF0006A017B01411551056105710549F4DC0169
:100F0000ED91FC910190F081E02D60E3099554C0D2
:100F1000882499245401422E55246624772401E024
:100F200010E00C0F1D1F080D191DC701B601A3010C
:100F300092010E94EE09F80160830894811C911CC3
:100F4000A11CB11CC701B601A30192010E94EE09C8
:100F5000C901DA016C017D01C114D104E104F1047D
:100F6000F1F681E0E82EF12CEC0EFD1EE80CF91CE8
:100F70003E010894611C711CD501C4010197A109AF
:100F8000B1096C01C818D90814C0F601EE0DFF1D97
:100F900060816A3010F4605D01C0695CD101ED913F
:100FA000FC910190F081E02DC10109950894E108C0
:100FB000F1086E147F0449F7A0960FB6F894DEBFCF
:100FC0000FBECDBFCF91DF911F910F91FF90EF909A
:100FD000DF90CF90BF90AF909F908F907F906F9059
:100FE0005F904F903F902F900895EF92FF920F9354
:100FF0001F93CF93DF93EC017A018B0177FF0FC032
:10100000E881F9810190F081E02D6DE2099510955C
:101010000095F094E094E11CF11C011D111DCE011E
:10102000B801A7012AE00E945D07DF91CF911F91CF
:101030000F91FF90EF900895AB01662757FD6095E3
:10104000762F0E94F50708951F920F920FB60F9208
:1010500011242F938F939F93AF93BF938091F101AE
:101060009091F201A091F301B091F4010196A11DBC
:10107000B11D8093F1019093F201A093F301B0931D
:10108000F4018091F5019091F601A091F701B091E2
:10109000F8018050904CAF4FBF4F8093F501909373
:1010A000F601A093F701B093F80127C08091F501F4
:1010B0009091F601A091F701B091F80180589E43FC
:1010C000A040B0408093F5019093F601A093F70102
:1010D000B093F8018091F9019091FA01A091FB0180
:1010E000B091FC010196A11DB11D8093F90190936F
:1010F000FA01A093FB01B093FC018091F50190915E
:10110000F601A091F701B091F80181589E43A040EB
:10111000B04060F6BF91AF919F918F912F910F904A
:101120000FBE0F901F9018958FB7F8942091F9017A
:101130003091FA014091FB015091FC018FBFB90140
:10114000CA010895EF92FF920F931F937B018C01C8
:101150008FB7F8944091F9015091FA016091FB0129
:101160007091FC018FBF2FB7F8948091F901909195
:10117000FA01A091FB01B091FC012FBF841B950BDC
:10118000A60BB70BE816F9060A071B0760F71F91B5
:101190000F91FF90EF900895789484B5826084BD9C
:1011A00084B5816084BD85B5826085BD85B581606B
:1011B00085BDEEE6F0E0808181608083E1E8F0E0CB
:1011C000808182608083808181608083E0E8F0E0BC
:1011D000808181608083E1EBF0E0808184608083A6
:1011E000E0EBF0E0808181608083EAE7F0E08081DD
:1011F000846080838081826080838081816080833D
:101200008081806880831092C1000895282F30E08B
:10121000C90186569F4FFC0194912A573F4FF9010F
:101220008491882391F0E82FF0E0EE0FFF1FE8593A
:10123000FF4FA591B491662329F48C919095892351
:101240008C9308958C91892B8C930895482F50E0AE
:10125000CA0182559F4FFC012491CA0186569F4FB7
:10126000FC0194914A575F4FFA0134913323D1F135
:10127000222331F1233021F4809180008F7705C043
:10128000243031F4809180008F7D8093800018C0DD
:10129000213019F484B58F7704C0223021F484B54D
:1012A0008F7D84BD0DC0263021F48091B0008F77F2
:1012B00005C0273029F48091B0008F7D8093B00065
:1012C000E32FF0E0EE0FFF1FEE58FF4FA591B49112
:1012D000662329F48C91909589238C9308958C91A1
:1012E000892B8C9308952F923F924F925F926F9229
:1012F0007F928F929F92AF92BF92CF92DF92EF92A6
:10130000FF920F931F93DF93CF93CDB7DEB73B01CF
:101310004C0119012A016D897E898F89988D6A197E
:101320007B098C099D09621A730A840A950AA40133
:1013300093010E94BC09E218F30804091509A801E9
:1013400097010E94100A2A0D3B1D4C1D5D1DB9011D
:10135000CA01CF91DF911F910F91FF90EF90DF9025
:10136000CF90BF90AF909F908F907F906F905F9045
:101370004F903F902F900895629FD001739FF0018E
:10138000829FE00DF11D649FE00DF11D929FF00D15
:10139000839FF00D749FF00D659FF00D9927729F4C
:1013A000B00DE11DF91F639FB00DE11DF91FBD01D7
:1013B000CF011124089597FB092E07260AD077FD47
:1013C00004D049D006D000201AF4709561957F4F63
:1013D0000895F6F7909581959F4F0895A1E21A2EF2
:1013E000AA1BBB1BFD010DC0AA1FBB1FEE1FFF1FC9
:1013F000A217B307E407F50720F0A21BB30BE40B19
:10140000F50B661F771F881F991F1A9469F760955F
:101410007095809590959B01AC01BD01CF01089519
:1014200097FB092E05260ED057FD04D0D7DF0AD032
:10143000001C38F450954095309521953F4F4F4F03
:101440005F4F0895F6F790958095709561957F4F61
:101450008F4F9F4F0895AA1BBB1B51E107C0AA1FC6
:10146000BB1FA617B70710F0A61BB70B881F991F45
:101470005A95A9F780959095BC01CD010895EE0F7E
:0E148000FF1F0590F491E02D0994F894FFCF22
:10148E0053656E736F7256616C41727261795B0057
:10149E005D203D00002000010200000C0000000055
:0414AE0000D906005B
:00000001FF
