:100000000C9436000C945E000C945E000C945E0020
:100010000C945E000C945E000C945E000C945E00E8
:100020000C945E000C945E000C945E000C945E00D8
:100030000C945E000C945E000C945E000C945E00C8
:100040000C948B050C945E000C94B7030C945E002A
:100050000C945E000C945E000C945E000C945E00A8
:100060000C94A5010C945E008501700411241FBE40
:10007000CFEFD8E0DEBFCDBF11E0A0E0B1E0E6E910
:10008000FDE002C005900D92AE32B107D9F711E044
:10009000AEE2B1E001C01D92AF3EB107E1F710E062
:1000A000CCE6D0E004C02297FE010E94C506C83607
:1000B000D107C9F70E94B0030C94C9060C94000044
:1000C0000F931F93CF93DF93689F8001699F100D5B
:1000D000789F100D1124C8010E947C00EC0100974C
:1000E00029F060E070E0A8010E947E01CE01DF915E
:1000F000CF911F910F910895CF93DF93BC01823070
:10010000910510F462E070E0A091ED01B091EE0174
:10011000ED01E0E0F0E040E050E021C0888199810D
:100120008617970769F48A819B81309719F093832A
:10013000828304C09093EE018093ED01FE0134C0F0
:100140006817790738F44115510519F08417950798
:1001500008F4AC01FE018A819B819C01E901209792
:10016000E9F641155105A9F1CA01861B970B0497C1
:1001700008F4BA01E0E0F0E02AC08D919C9111975B
:1001800084179507F9F46417750781F412968D9119
:100190009C911397309719F09383828304C09093B6
:1001A000EE018093ED01FD0132964CC0CA01861B21
:1001B000970BFD01E80FF91F6193719302978D93DF
:1001C0009C9340C0FD01828193819C01D9011097CD
:1001D000A1F68091EB019091EC01892B41F4809183
:1001E0000D0190910E019093EC018093EB014091F1
:1001F0000F01509110014115510541F44DB75EB703
:1002000080910B0190910C01481B590B2091EB013F
:100210003091EC01CA01821B930B8617970780F07F
:10022000AB014E5F5F4F8417950750F0420F531F8D
:100230005093EC014093EB01F9016193719302C07B
:10024000E0E0F0E0CF01DF91CF910895CF93DF930D
:10025000009709F450C0EC0122971B821A82A091EA
:10026000ED01B091EE01109709F140E050E0AC17BC
:10027000BD0708F1BB83AA83FE0121913191E20FF2
:10028000F31FAE17BF0779F48D919C911197280F3A
:10029000391F2E5F3F4F3983288312968D919C9191
:1002A00013979B838A834115510571F4D093EE0116
:1002B000C093ED0120C012968D919C911397AD01D2
:1002C000009711F0DC01D3CFFA01D383C2832191CF
:1002D0003191E20FF31FCE17DF0769F4888199810E
:1002E000280F391F2E5F3F4FFA01318320838A8107
:1002F0009B8193838283DF91CF910895DC0101C0BC
:100300006D9341505040E0F70895089580E290E0E9
:1003100061E070E00E94600080932E0190932F01B5
:10032000109230011092310180E290E061E070E0C3
:100330000E94600080933201909333011092340147
:10034000109235010E94270308951F920F920FB655
:100350000F9211242F933F934F935F936F937F934B
:100360008F939F93AF93BF93EF93FF938091B900C7
:1003700090E0887F90708036910509F4E2C0813664
:100380009105CCF58832910509F47BC0893291053D
:10039000B4F48031910509F46FC0813191053CF4CA
:1003A000009709F438C1089709F040C165C0883149
:1003B000910509F466C0809709F038C17FC0803488
:1003C000910509F4A3C08134910544F4803391056B
:1003D00009F47FC0C89709F029C186C0803591050E
:1003E00009F486C08835910509F495C088349105D3
:1003F00009F01CC19EC08839910509F404C18939EE
:100400009105ECF48837910509F49BC08937910573
:100410004CF48836910509F494C08037910509F0B1
:1004200005C18FC08838910509F4EDC08039910568
:1004300009F48DC08038910509F0F8C088C0803B70
:10044000910509F4B2C0813B91054CF4803A9105C5
:1004500009F491C0883A910509F0E8C0A6C0803C33
:10046000910509F4D4C0883C910509F4D0C0883BBB
:10047000910509F0DBC0B1C0809138018093BB00C9
:10048000C0C090913F0180914001981778F49091FD
:100490003F01E0913D01F0913E01E90FF11D8081A6
:1004A0008093BB009F5F90933F01ABC085ED80932D
:1004B000BC008091BC0084FDFCCFB6C080E280937C
:1004C000480185ED8093BC008091BC0084FDFCCF89
:1004D000ABC080E38093480185ED8093BC008091A0
:1004E000BC0084FDFCCFA0C088E3809348018FC08E
:1004F00080913F019091BB00E0913D01F0913E0160
:10050000E80FF11D90838F5F80933F0190913F0131
:100510008091400174C080913F019091BB00E091B7
:100520003D01F0913E01E80FF11D90838F5F8093B4
:100530003F0185ED8093BC008091BC0084FDFCCF21
:1005400073C083E080933701109247015AC08091B5
:100550004701803208F057C0809147019091BB005D
:10056000E0914501F0914601E80FF11D90838F5F06
:100570008093470146C080914701803248F48091C2
:100580004701E0914501F0914601E80FF11D10820D
:1005900060914701E0913B01F0913C018091450160
:1005A0009091460170E0099532C084E08093370154
:1005B0001092430110924401E0913901F0913A0107
:1005C000099580914401882341F481E0809344019E
:1005D000E0914101F0914201108290914301E0913C
:1005E0004101F0914201E90FF11D80818093BB0030
:1005F0009F5F90934301909143018091440198172C
:1006000010F485EC01C085E88093BC000FC085EC38
:100610008093BC0009C01092480185ED8093BC0016
:100620008091BC0084FDFCCF10923701FF91EF91C7
:10063000BF91AF919F918F917F916F915F914F91FA
:100640003F912F910F900FBE0F901F901895109211
:100650003701449A459AE9EBF0E080818E7F8083F0
:1006600080818D7F808388E48093B80085E48093C7
:10067000BC0080E290E061E070E00E946000809346
:100680003D0190933E0180E290E061E070E00E94C5
:100690006000809341019093420180E290E061E02C
:1006A00070E00E9460008093450190934601089598
:1006B0000F931F93CF93DF938C01C0E0D0E0F8013C
:1006C000EC0FFD1F608171818DEC91E00E947D0532
:1006D00068EC70E080E090E00E94FB052296C43157
:1006E000D10569F7DF91CF911F910F9108950F9375
:1006F0001F938B018DEC91E060E071E00E94D604C5
:100700000E5F1F4FC8011F910F910895CF93DF9384
:1007100080912501909126010E945803C4E6D0E003
:100720008AE090E061E171E00E94770390932601F6
:10073000809325010E9458032196C639D10581F77F
:10074000DF91CF91089586E391E00E9486018DECC0
:1007500091E040E855E260E070E00E94F403089503
:100760000E9425060E94A3030E948603FDCF1F92CC
:100770000F920FB60F9211242F933F934F935F93D5
:100780006F937F938F939F93AF93BF93EF93FF9359
:100790004091C600E091C901F091CA01CF010196D4
:1007A00060E870E00E945F069C018091CB0190910F
:1007B000CC012817390739F0E75BFE4F40833093AF
:1007C000CA012093C901FF91EF91BF91AF919F9111
:1007D0008F917F916F915F914F913F912F910F90EA
:1007E0000FBE0F901F901895AF92BF92CF92DF92DD
:1007F000EF92FF920F931F93CF93DF936C017A01D7
:100800008B01DC011496AD90BC901597CB01BA0119
:1008100022E030E040E050E00E949406205C3D4B36
:10082000404F5F4FCA01B901A80197010E94940689
:10083000C901DA010197A109B109292F3A2F4B2FDC
:10084000552747FD5A950196A11DB11DE501288345
:10085000E601EE81FF8181508083EA85FB8520815E
:1008600041E050E0CA010E8402C0880F991F0A942B
:10087000E2F7282B2083EA85FB852081CA010F84BB
:1008800002C0880F991F0A94E2F7282B2083EA857B
:10089000FB858081088802C0440F551F0A94E2F747
:1008A000842B8083DF91CF911F910F91FF90EF9068
:1008B000DF90CF90BF90AF900895FC01A085B185E7
:1008C00021898C9190E0022E02C0959587950A941B
:1008D000E2F780FFF6CF0484F585E02D608308956C
:1008E0008BE291E09093CE018093CD0189E491E079
:1008F0009093D0018093CF0185EC90E09093D2014A
:100900008093D10184EC90E09093D4018093D30143
:1009100080EC90E09093D6018093D50181EC90E03B
:100920009093D8018093D70186EC90E09093DA0100
:100930008093D90184E08093DB0183E08093DC0124
:1009400087E08093DD0185E08093DE0108950F93B9
:100950001F93CF93DF938C01EB0109C02196D8013F
:10096000ED91FC910190F081E02DC801099568811D
:100970006623A1F7DF91CF911F910F9108950F93F7
:100980001F938C01DC01ED91FC910190F081E02D31
:100990006DE00995D801ED91FC910190F081E02D79
:1009A000C8016AE009951F910F9108950F931F9355
:1009B0008C010E94A704C8010E94BF041F910F91DF
:1009C00008952F923F924F925F926F927F928F92F3
:1009D0009F92AF92BF92CF92DF92EF92FF920F93CE
:1009E0001F93DF93CF93CDB7DEB7A0970FB6F894E0
:1009F000DEBF0FBECDBF1C016A017B014115510551
:100A00006105710549F4DC01ED91FC910190F081E3
:100A1000E02D60E3099554C0882499245401422EA6
:100A200055246624772401E010E00C0F1D1F080DEB
:100A3000191DC701B601A30192010E947206F801B7
:100A400060830894811C911CA11CB11CC701B601D4
:100A5000A30192010E947206C901DA016C017D01B5
:100A6000C114D104E104F104F1F681E0E82EF12C87
:100A7000EC0EFD1EE80CF91C3E010894611C711C73
:100A8000D501C4010197A109B1096C01C818D908A1
:100A900014C0F601EE0DFF1D60816A3010F4605D38
:100AA00001C0695CD101ED91FC910190F081E02DD4
:100AB000C10109950894E108F1086E147F0449F713
:100AC000A0960FB6F894DEBF0FBECDBFCF91DF91D9
:100AD0001F910F91FF90EF90DF90CF90BF90AF905C
:100AE0009F908F907F906F905F904F903F902F904E
:100AF00008952AE00E94E10408950F931F938C014A
:100B0000AB0160E070E00E947905C8010E94BF045B
:100B10001F910F9108951F920F920FB60F921124FB
:100B20002F938F939F93AF93BF938091DF01909109
:100B3000E001A091E101B091E2010196A11DB11D7A
:100B40008093DF019093E001A093E101B093E20173
:100B50008091E3019091E401A091E501B091E6015B
:100B60008050904CAF4FBF4F8093E3019093E401CE
:100B7000A093E501B093E60127C08091E301909135
:100B8000E401A091E501B091E60180589E43A040A8
:100B9000B0408093E3019093E401A093E501B0930A
:100BA000E6018091E7019091E801A091E901B091FF
:100BB000EA010196A11DB11D8093E7019093E80120
:100BC000A093E901B093EA018091E3019091E401DF
:100BD000A091E501B091E60181589E43A040B0404C
:100BE00060F6BF91AF919F918F912F910F900FBEA3
:100BF0000F901F901895EF92FF920F931F937B0118
:100C00008C018FB7F8944091E7015091E801609111
:100C1000E9017091EA018FBF2FB7F8948091E70145
:100C20009091E801A091E901B091EA012FBF841BE6
:100C3000950BA60BB70BE816F9060A071B0760F71A
:100C40001F910F91FF90EF900895789484B5826082
:100C500084BD84B5816084BD85B5826085BD85B560
:100C6000816085BDEEE6F0E0808181608083E1E80F
:100C7000F0E0808182608083808181608083E0E811
:100C8000F0E0808181608083E1EBF0E0808184602E
:100C90008083E0EBF0E0808181608083EAE7F0E030
:100CA0008081846080838081826080838081816094
:100CB00080838081806880831092C100089597FBB3
:100CC000092E07260AD077FD04D049D006D000208F
:100CD0001AF4709561957F4F0895F6F79095819578
:100CE0009F4F0895A1E21A2EAA1BBB1BFD010DC048
:100CF000AA1FBB1FEE1FFF1FA217B307E407F507CC
:100D000020F0A21BB30BE40BF50B661F771F881FA7
:100D1000991F1A9469F760957095809590959B013D
:100D2000AC01BD01CF01089597FB092E05260ED019
:100D300057FD04D0D7DF0AD0001C38F450954095F9
:100D4000309521953F4F4F4F5F4F0895F6F790959F
:100D50008095709561957F4F8F4F9F4F0895AA1B87
:100D6000BB1B51E107C0AA1FBB1FA617B70710F096
:100D7000A61BB70B881F991F5A95A9F780959095C8
:100D8000BC01CD010895EE0FFF1F0590F491E02DF9
:060D90000994F894FFCF66
:100D960068690020696E63686573002000EF0100D2
:100DA6000000000100020003000400050006000721
:0E0DB60000080009001101000000005D0400AB
:00000001FF
