:100000000C9436000C945E000C945E000C945E0020
:100010000C945E000C945E000C945E000C945E00E8
:100020000C945E000C945E000C945E000C945E00D8
:100030000C945E000C945E000C945E000C945E00C8
:100040000C9484070C945E000C948B050C945E0059
:100050000C945E000C945E000C945E000C945E00A8
:100060000C94AF020C945E00A801440611241FBE3C
:10007000CFEFD8E0DEBFCDBF11E0A0E0B1E0E8E512
:10008000F2E102C005900D92A634B107D9F712E053
:10009000A6E4B1E001C01D92AF30B107E1F710E076
:1000A000CCE6D0E004C02297FE010E942609C836A3
:1000B000D107C9F70E9484050C942A090C9400000A
:1000C0000F931F93CF93DF93689F8001699F100D5B
:1000D000789F100D1124C8010E947C00EC0100974C
:1000E00029F060E070E0A8010E947E01CE01DF915E
:1000F000CF911F910F910895CF93DF93BC01823070
:10010000910510F462E070E0A0910D02B0910E0232
:10011000ED01E0E0F0E040E050E021C0888199810D
:100120008617970769F48A819B81309719F093832A
:10013000828304C090930E0280930D02FE0134C0AE
:100140006817790738F44115510519F08417950798
:1001500008F4AC01FE018A819B819C01E901209792
:10016000E9F641155105A9F1CA01861B970B0497C1
:1001700008F4BA01E0E0F0E02AC08D919C9111975B
:1001800084179507F9F46417750781F412968D9119
:100190009C911397309719F09383828304C09093B6
:1001A0000E0280930D02FD0132964CC0CA01861BDF
:1001B000970BFD01E80FF91F6193719302978D93DF
:1001C0009C9340C0FD01828193819C01D9011097CD
:1001D000A1F680910B0290910C02892B41F4809141
:1001E00032019091330190930C0280930B02409165
:1001F0003401509135014115510541F44DB75EB7B9
:100200008091300190913101481B590B20910B02D4
:1002100030910C02CA01821B930B8617970780F05E
:10022000AB014E5F5F4F8417950750F0420F531F8D
:1002300050930C0240930B02F9016193719302C039
:10024000E0E0F0E0CF01DF91CF910895CF93DF930D
:10025000009709F450C0EC0122971B821A82A091EA
:100260000D02B0910E02109709F140E050E0AC177A
:10027000BD0708F1BB83AA83FE0121913191E20FF2
:10028000F31FAE17BF0779F48D919C911197280F3A
:10029000391F2E5F3F4F3983288312968D919C9191
:1002A00013979B838A834115510571F4D0930E02F5
:1002B000C0930D0220C012968D919C911397AD01B1
:1002C000009711F0DC01D3CFFA01D383C2832191CF
:1002D0003191E20FF31FCE17DF0769F4888199810E
:1002E000280F391F2E5F3F4FFA01318320838A8107
:1002F0009B8193838283DF91CF910895DC0101C0BC
:100300006D9341505040E0F7089581E080934F0194
:1003100060934A0110924D0110924E010895809110
:10032000490190914801891B08959091480180915D
:100330004901981710F080E00895E0914601F0918E
:100340004701E90FF11D80819F5F90934801089557
:100350000895DF93CF930F92CDB7DEB76983809175
:100360004F018823A9F080914E018032B0F4809132
:100370004D01E0914B01F0914C01E80FF11D6083BC
:1003800080914D018F5F80934D0180934E0105C098
:10039000CE01019661E00E9492020F90CF91DF9111
:1003A00008950E94A901089560914B0170914C013C
:1003B00080914A0140914E0121E00E944D0210922D
:1003C0004D0110924E0110924F010895862F6091B9
:1003D000460170914701413208F040E20E94170245
:1003E000109248018093490108950E94E601089502
:1003F00080E290E061E070E00E946000809346013E
:1004000090934701109248011092490180E290E0D8
:1004100061E070E00E94600080934B0190934C017A
:1004200010924D0110924E010E9431040895982FB0
:10043000413210F040E02FC0809151018823E1F754
:1004400081E0809351018FEF8093620110925901F6
:1004500040935A01990F91609093520185EE8093D9
:10046000BC00809151018130E1F3809159018417E2
:1004700010F440915901A0915701B091580120E02A
:1004800030E007C0FB01E20FF31F8D9180832F5FE7
:100490003F4F2417B8F3842F08951F93582F122F1E
:1004A000413210F081E03CC0809151018823E1F796
:1004B00082E0809351018FEF809362011092590185
:1004C00040935A01A0915701B0915801FB0102C01D
:1004D00081918D938E2F861B8417D0F3852F90E00A
:1004E000880F991F8093520185EE8093BC001123E1
:1004F00021F0809151018230E1F3809162018F3FC0
:1005000011F480E00DC080916201803211F482E02C
:1005100007C080916201803311F084E001C083E064
:100520001F910895482F613210F081E00895809165
:100530005101843011F082E0089560935E01A09132
:100540005B01B0915C01842F9C01F90102C0819193
:100550008D938E2F841B8617D0F380E008951F9211
:100560000F920FB60F9211242F933F934F935F93E7
:100570006F937F938F939F93AF93BF93EF93FF936B
:100580008091B90090E0887F90708036910509F4E1
:10059000E2C081369105CCF58832910509F47BC023
:1005A00089329105B4F48031910509F46FC081312D
:1005B00091053CF4009709F438C1089709F040C14F
:1005C00065C08831910509F466C0809709F038C18B
:1005D0007FC08034910509F4A3C08134910544F4AF
:1005E0008033910509F47FC0C89709F029C186C0FE
:1005F0008035910509F486C08835910509F495C0C8
:100600008834910509F01CC19EC08839910509F410
:1006100004C189399105ECF48837910509F49BC030
:10062000893791054CF48836910509F494C08037D8
:10063000910509F005C18FC08838910509F4EDC016
:100640008039910509F48DC08038910509F0F8C012
:1006500088C0803B910509F4B2C0813B91054CF400
:10066000803A910509F491C0883A910509F0E8C0F3
:10067000A6C0803C910509F4D4C0883C910509F4DA
:10068000D0C0883B910509F0DBC0B1C08091520118
:100690008093BB00C0C09091590180915A01981776
:1006A00078F490915901E0915701F0915801E90FC8
:1006B000F11D80818093BB009F5F90935901ABC077
:1006C00085ED8093BC008091BC0084FDFCCFB6C05A
:1006D00080E28093620185ED8093BC008091BC0034
:1006E00084FDFCCFABC080E38093620185ED8093F5
:1006F000BC008091BC0084FDFCCFA0C088E3809347
:1007000062018FC0809159019091BB00E091570127
:10071000F0915801E80FF11D90838F5F809359018C
:100720009091590180915A0174C080915901909122
:10073000BB00E0915701F0915801E80FF11D908343
:100740008F5F8093590185ED8093BC008091BC0040
:1007500084FDFCCF73C083E080935101109261014E
:100760005AC080916101803208F057C080916101C8
:100770009091BB00E0915F01F0916001E80FF11DE5
:1007800090838F5F8093610146C0809161018032C8
:1007900048F480916101E0915F01F0916001E80F00
:1007A000F11D108260916101E0915501F0915601B7
:1007B00080915F019091600170E0099532C084E002
:1007C0008093510110925D0110925E01E0915301FE
:1007D000F0915401099580915E01882341F481E0F4
:1007E00080935E01E0915B01F0915C011082909139
:1007F0005D01E0915B01F0915C01E90FF11D8081E9
:100800008093BB009F5F90935D0190915D0180910B
:100810005E01981710F485EC01C085E88093BC0058
:100820000FC085EC8093BC0009C01092620185ED79
:100830008093BC008091BC0084FDFCCF10925101DC
:10084000FF91EF91BF91AF919F918F917F916F91A8
:100850005F914F913F912F910F900FBE0F901F907E
:10086000189510925101449A459AE9EBF0E0808185
:100870008E7F808380818D7F808388E48093B80021
:1008800085E48093BC0080E290E061E070E00E942B
:100890006000809357019093580180E290E061E0FE
:1008A00070E00E94600080935B0190935C0180E2A5
:1008B00090E061E070E00E94600080935F0190939F
:1008C000600108951F939C01AB0180E591E0B9019F
:1008D0000E94F50180E591E00E948F018230D0F303
:1008E00080E591E00E949501182F80E591E00E943B
:1008F0009501512F40E0282F30E0242B352BC901E2
:100900001F910895EF92FF920F931F939C017B011B
:1009100000E511E0C801B9010E948501C801B701D5
:100920000E94D101C8010E94D4011F910F91FF9034
:10093000EF900895EF92FF920F931F939C017B011C
:1009400000E511E0C801B9010E948501C80160E01D
:1009500070E00E94D101C801B7010E94D101C80115
:100960000E94D4011F910F91FF90EF90089580E7AE
:1009700090E060E570E00E949A0464EF71E080E02E
:1009800090E00E94F40780E790E062E070E00E944F
:10099000820480E790E062E070E00E9462040895C3
:1009A000BC018DEE91E00E9474070895AF92BF9252
:1009B000CF92DF92EF92FF920F931F930E94B704A2
:1009C0009C019093640180936301009721F18091D1
:1009D00038019091390190933701809336018091CD
:1009E0003A0190913B0190933901809338018091B5
:1009F0003C0190913D0190933B0180933A0180919D
:100A00003E0190913F0190933D0180933C013093D2
:100A10003F0120933E01809136019091370123E000
:100A2000893E920710F088EE93E0209138013091D2
:100A300039012817390708F4C90120913A0130918A
:100A40003B012817390708F4C90120913C01309176
:100A50003D01BC012817390708F4B90180913E0116
:100A600090913F018617970708F4BC0170936601C7
:100A70006093650100D000D080E090E028EE33E084
:100A800040E050E0EDB7FEB72183328343835483C7
:100A900028E030E040E050E0FCE8EF2EF12C012DA2
:100AA000112DE2E3AE2EB12CC12CD12C0E9458089E
:100AB000DC01CB0190936801809367010F900F9048
:100AC0000F900F900E94D0041F910F91FF90EF9014
:100AD000DF90CF90BF90AF9008950F931F9380E564
:100AE00091E00E94F8010DEE11E0C80140E855E2E6
:100AF00060E070E00E94C805C80164E171E00E94F6
:100B0000AA061F910F9108950E941E080E946D056C
:100B10000E94D604FDCF1F920F920FB60F921124A0
:100B20002F933F934F935F936F937F938F939F93F5
:100B3000AF93BF93EF93FF934091C600E091E9011B
:100B4000F091EA01CF01019660E870E00E94C008D0
:100B50009C018091EB019091EC012817390739F045
:100B6000E759FE4F40833093EA012093E901FF915A
:100B7000EF91BF91AF919F918F917F916F915F9115
:100B80004F913F912F910F900FBE0F901F9018958E
:100B9000AF92BF92CF92DF92EF92FF920F931F938B
:100BA000CF93DF936C017A018B01DC011496AD9039
:100BB000BC901597CB01BA0122E030E040E050E054
:100BC0000E94F508205C3D4B404F5F4FCA01B901C0
:100BD000A80197010E94F508C901DA010197A1094E
:100BE000B109292F3A2F4B2F552747FD5A950196CA
:100BF000A11DB11DE5012883E601EE81FF81815031
:100C00008083EA85FB85208141E050E0CA010E84A3
:100C100002C0880F991F0A94E2F7282B2083EA85E7
:100C2000FB852081CA010F8402C0880F991F0A9496
:100C3000E2F7282B2083EA85FB858081088802C0A3
:100C4000440F551F0A94E2F7842B8083DF91CF91E4
:100C50001F910F91FF90EF90DF90CF90BF90AF90DA
:100C60000895FC01A085B18521898C9190E0022E28
:100C700002C0959587950A94E2F780FFF6CF048429
:100C8000F585E02D6083089584E491E09093EE0172
:100C90008093ED0189E691E09093F0018093EF015C
:100CA00085EC90E09093F2018093F10184EC90E068
:100CB0009093F4018093F30180EC90E09093F6011F
:100CC0008093F50181EC90E09093F8018093F70117
:100CD00086EC90E09093FA018093F90184E0809390
:100CE000FB0183E08093FC0187E08093FD0185E0B8
:100CF0008093FE0108950F931F93CF93DF938C0190
:100D0000EB0109C02196D801ED91FC910190F08191
:100D1000E02DC801099568816623A1F7DF91CF9185
:100D20001F910F9108950F931F938C01DC01ED919A
:100D3000FC910190F081E02D6DE00995D801ED91D5
:100D4000FC910190F081E02DC8016AE009951F91A6
:100D50000F9108950F931F938C010E947B06C80189
:100D60000E9493061F910F9108952F923F924F92E8
:100D70005F926F927F928F929F92AF92BF92CF922B
:100D8000DF92EF92FF920F931F93DF93CF93CDB734
:100D9000DEB7A0970FB6F894DEBF0FBECDBF1C0123
:100DA0006A017B01411551056105710549F4DC01BA
:100DB000ED91FC910190F081E02D60E3099554C024
:100DC000882499245401422E55246624772401E076
:100DD00010E00C0F1D1F080D191DC701B601A3015E
:100DE00092010E94D308F80160830894811C911C31
:100DF000A11CB11CC701B601A30192010E94D30836
:100E0000C901DA016C017D01C114D104E104F104CE
:100E1000F1F681E0E82EF12CEC0EFD1EE80CF91C39
:100E20003E010894611C711CD501C4010197A10900
:100E3000B1096C01C818D90814C0F601EE0DFF1DE8
:100E400060816A3010F4605D01C0695CD101ED9190
:100E5000FC910190F081E02DC10109950894E10811
:100E6000F1086E147F0449F7A0960FB6F894DEBF20
:100E70000FBECDBFCF91DF911F910F91FF90EF90EB
:100E8000DF90CF90BF90AF909F908F907F906F90AA
:100E90005F904F903F902F900895EF92FF920F93A5
:100EA0001F93CF93DF93EC017A018B0177FF0FC083
:100EB000E881F9810190F081E02D6DE209951095AE
:100EC0000095F094E094E11CF11C011D111DCE0170
:100ED000B801A7012AE00E94B506DF91CF911F91CA
:100EE0000F91FF90EF9008950F931F938C01AB012A
:100EF000662757FD6095762F0E944D07C8010E9416
:100F000093061F910F9108951F920F920FB60F92A3
:100F100011242F938F939F93AF93BF938091FF01E1
:100F200090910002A0910102B09102020196A11DD0
:100F3000B11D8093FF0190930002A0930102B09332
:100F400002028091030290910402A0910502B091E7
:100F500006028050904CAF4FBF4F80930302909396
:100F60000402A0930502B093060227C080910302F9
:100F700090910402A0910502B091060280589E4310
:100F8000A040B0408093030290930402A093050216
:100F9000B09306028091070290910802A091090285
:100FA000B0910A020196A11DB11D80930702909392
:100FB0000802A0930902B0930A0280910302909163
:100FC0000402A0910502B091060281589E43A04000
:100FD000B04060F6BF91AF919F918F912F910F908C
:100FE0000FBE0F901F901895EF92FF920F931F93D3
:100FF0007B018C018FB7F894409107025091080251
:101000006091090270910A028FBF2FB7F894809106
:10101000070290910802A0910902B0910A022FBF25
:10102000841B950BA60BB70BE816F9060A071B07DE
:1010300060F71F910F91FF90EF900895789484B519
:10104000826084BD84B5816084BD85B5826085BDC4
:1010500085B5816085BDEEE6F0E0808181608083AA
:10106000E1E8F0E08081826080838081816080831C
:10107000E0E8F0E0808181608083E1EBF0E0808156
:1010800084608083E0EBF0E0808181608083EAE728
:10109000F0E08081846080838081826080838081B1
:1010A000816080838081806880831092C100089570
:1010B0002F923F924F925F926F927F928F929F9268
:1010C000AF92BF92CF92DF92EF92FF920F931F9356
:1010D000DF93CF93CDB7DEB73B014C0119012A0155
:1010E0006D897E898F89988D6A197B098C099D0984
:1010F000621A730A840A950AA40193010E94A10846
:10110000E218F30804091509A80197010E94F508DF
:101110002A0D3B1D4C1D5D1DB901CA01CF91DF9108
:101120001F910F91FF90EF90DF90CF90BF90AF9005
:101130009F908F907F906F905F904F903F902F90F7
:101140000895629FD001739FF001829FE00DF11D11
:10115000649FE00DF11D929FF00D839FF00D749F31
:10116000F00D659FF00D9927729FB00DE11DF91FDD
:10117000639FB00DE11DF91FBD01CF01112408953A
:1011800097FB092E07260AD077FD04D049D006D058
:1011900000201AF4709561957F4F0895F6F79095A9
:1011A00081959F4F0895A1E21A2EAA1BBB1BFD013A
:1011B0000DC0AA1FBB1FEE1FFF1FA217B307E40736
:1011C000F50720F0A21BB30BE40BF50B661F771F8E
:1011D000881F991F1A9469F760957095809590956E
:1011E0009B01AC01BD01CF01089597FB092E052697
:1011F0000ED057FD04D0D7DF0AD0001C38F450952C
:101200004095309521953F4F4F4F5F4F0895F6F72A
:1012100090958095709561957F4F8F4F9F4F089562
:10122000AA1BBB1B51E107C0AA1FBB1FA617B7070C
:1012300010F0A61BB70B881F991F5A95A9F7809528
:101240009095BC01CD010895EE0FFF1F0590F4911C
:08125000E02D0994F894FFCF92
:1012580053656E736F7256616C41727261795B008F
:101268005D203D00426C61636B20426F7820636FA4
:101278006D696E67206F6E6C696E65206E6F7700A2
:1012880020000F020000E803E803E803E803E8038E
:0612980000000000310619
:00000001FF
