:100000000C9463000C948B000C948B000C948B006C
:100010000C948B000C948B000C948B000C948B0034
:100020000C948B000C948B000C948B000C948B0024
:100030000C948B000C948B000C948B000C948B0014
:100040000C947F060C948B000C9487050C948B0009
:100050000C948B000C948B000C948B000C948B00F4
:100060000C94DC020C948B0000000000240027009C
:100070002A0000000000250028002B0000000000DE
:1000800023002600290004040404040404040202DA
:100090000202020203030303030301020408102007
:1000A0004080010204081020010204081020000012
:1000B0000007000201000003040600000000000029
:1000C0000000D501400611241FBECFEFD8E0DEBFEF
:1000D000CDBF11E0A0E0B1E0E4E7F0E102C005909F
:1000E0000D92AC30B107D9F711E0ACE0B1E001C03E
:1000F0001D92AD3FB107E1F710E0C6ECD0E004C0BF
:100100002297FE010E943408C23CD107C9F70E9421
:1001100080050C9438080C9400000F931F93CF9324
:10012000DF93689F8001699F100D789F100D112447
:10013000C8010E94A900EC01009729F060E070E07E
:10014000A8010E94AB01CE01DF91CF911F910F91C9
:100150000895CF93DF93BC018230910510F462E0E3
:1001600070E0A091FB01B091FC01ED01E0E0F0E056
:1001700040E050E021C0888199818617970769F493
:100180008A819B81309719F09383828304C0909376
:10019000FC018093FB01FE0134C06817790738F435
:1001A0004115510519F08417950708F4AC01FE01BB
:1001B0008A819B819C01E9012097E9F6411551054F
:1001C000A9F1CA01861B970B049708F4BA01E0E075
:1001D000F0E02AC08D919C91119784179507F9F44E
:1001E0006417750781F412968D919C91139730973F
:1001F00019F09383828304C09093FC018093FB01E8
:10020000FD0132964CC0CA01861B970BFD01E80F19
:10021000F91F6193719302978D939C9340C0FD01E8
:10022000828193819C01D9011097A1F68091F901F7
:100230009091FA01892B41F4809102019091030180
:100240009093FA018093F9014091040150910501C6
:100250004115510541F44DB75EB780910001909171
:100260000101481B590B2091F9013091FA01CA0193
:10027000821B930B8617970780F0AB014E5F5F4F91
:100280008417950750F0420F531F5093FA01409383
:10029000F901F9016193719302C0E0E0F0E0CF0150
:1002A000DF91CF910895CF93DF93009709F450C069
:1002B000EC0122971B821A82A091FB01B091FC01F4
:1002C000109709F140E050E0AC17BD0708F1BB837F
:1002D000AA83FE0121913191E20FF31FAE17BF07F0
:1002E00079F48D919C911197280F391F2E5F3F4F04
:1002F0003983288312968D919C9113979B838A83CF
:100300004115510571F4D093FC01C093FB0120C04D
:1003100012968D919C911397AD01009711F0DC011D
:10032000D3CFFA01D383C28321913191E20FF31F1E
:10033000CE17DF0769F488819981280F391F2E5F56
:100340003F4FFA01318320838A819B81938382838B
:10035000DF91CF910895DC0101C06D934150504071
:10036000E0F7089581E080931501609310011092E9
:10037000130110921401089580910F0190910E01C4
:10038000891B089590910E0180910F01981710F02C
:1003900080E00895E0910C01F0910D01E90FF11D4D
:1003A00080819F5F90930E0108950895DF93CF930E
:1003B0000F92CDB7DEB76983809115018823A9F02C
:1003C000809114018032B0F480911301E091110109
:1003D000F0911201E80FF11D6083809113018F5F8E
:1003E000809313018093140105C0CE01019661E052
:1003F0000E94BF020F90CF91DF9108950E94D60115
:100400000895609111017091120180911001409145
:10041000140121E00E947A0210921301109214013B
:10042000109215010895862F60910C0170910D01B5
:10043000413208F040E20E94440210920E01809383
:100440000F0108950E941302089580E290E061E098
:1004500070E00E948D0080930C0190930D0110922A
:100460000E0110920F0180E290E061E070E00E94C6
:100470008D0080931101909312011092130110923C
:1004800014010E945E040895982F413210F040E05C
:100490002FC0809117018823E1F781E08093170135
:1004A0008FEF8093280110921F0140932001990F34
:1004B00091609093180185EE8093BC0080911701A4
:1004C0008130E1F380911F01841710F440911F01E6
:1004D000A0911D01B0911E0120E030E007C0FB019A
:1004E000E20FF31F8D9180832F5F3F4F2417B8F3E6
:1004F000842F08951F93582F122F413210F081E05E
:100500003CC0809117018823E1F782E080931701B6
:100510008FEF8093280110921F0140932001A0913A
:100520001D01B0911E01FB0102C081918D938E2FA0
:10053000861B8417D0F3852F90E0880F991F809336
:10054000180185EE8093BC00112321F080911701E2
:100550008230E1F3809128018F3F11F480E00DC0DB
:1005600080912801803211F482E007C08091280137
:10057000803311F084E001C083E01F910895482F7B
:10058000613210F081E0089580911701843011F0FC
:1005900082E0089560932401A0912101B09122018D
:1005A000842F9C01F90102C081918D938E2F841BB1
:1005B0008617D0F380E008951F920F920FB60F9226
:1005C00011242F933F934F935F936F937F938F9358
:1005D0009F93AF93BF93EF93FF938091B90090E007
:1005E000887F90708036910509F4E2C081369105CC
:1005F000CCF58832910509F47BC089329105B4F4B9
:100600008031910509F46FC0813191053CF4009768
:1006100009F438C1089709F040C165C088319105D7
:1006200009F466C0809709F038C17FC08034910515
:1006300009F4A3C08134910544F48033910509F491
:100640007FC0C89709F029C186C08035910509F49B
:1006500086C08835910509F495C08834910509F064
:100660001CC19EC08839910509F404C189399105DE
:10067000ECF48837910509F49BC0893791054CF457
:100680008836910509F494C08037910509F005C1B9
:100690008FC08838910509F4EDC08039910509F4BF
:1006A0008DC08038910509F0F8C088C0803B910565
:1006B00009F4B2C0813B91054CF4803A910509F4EC
:1006C00091C0883A910509F0E8C0A6C0803C910528
:1006D00009F4D4C0883C910509F4D0C0883B910549
:1006E00009F0DBC0B1C0809118018093BB00C0C08D
:1006F00090911F0180912001981778F490911F012B
:10070000E0911D01F0911E01E90FF11D80818093A0
:10071000BB009F5F90931F01ABC085ED8093BC0031
:100720008091BC0084FDFCCFB6C080E2809328019C
:1007300085ED8093BC008091BC0084FDFCCFABC0F4
:1007400080E38093280185ED8093BC008091BC00FC
:1007500084FDFCCFA0C088E3809328018FC08091E6
:100760001F019091BB00E0911D01F0911E01E80F67
:10077000F11D90838F5F80931F0190911F018091E5
:10078000200174C080911F019091BB00E0911D0178
:10079000F0911E01E80FF11D90838F5F80931F0180
:1007A00085ED8093BC008091BC0084FDFCCF73C0BC
:1007B00083E080931701109227015AC0809127018E
:1007C000803208F057C0809127019091BB00E091E2
:1007D0002501F0912601E80FF11D90838F5F809332
:1007E000270146C080912701803248F4809127017B
:1007F000E0912501F0912601E80FF11D1082609132
:100800002701E0911B01F0911C018091250190913D
:10081000260170E0099532C084E0809317011092A0
:10082000230110922401E0911901F0911A01099518
:1008300080912401882341F481E080932401E09198
:100840002101F0912201108290912301E091210178
:10085000F0912201E90FF11D80818093BB009F5F21
:10086000909323019091230180912401981710F413
:1008700085EC01C085E88093BC000FC085EC8093B7
:10088000BC0009C01092280185ED8093BC008091C6
:10089000BC0084FDFCCF10921701FF91EF91BF9136
:1008A000AF919F918F917F916F915F914F913F9108
:1008B0002F910F900FBE0F901F9018951092170157
:1008C000449A459AE9EBF0E080818E7F80838081B5
:1008D0008D7F808388E48093B80085E48093BC009A
:1008E00080E290E061E070E00E948D0080931D0145
:1008F00090931E0180E290E061E070E00E948D0024
:10090000809321019093220180E290E061E070E009
:100910000E948D00809325019093260108951F93D6
:100920009C01AB0186E191E0B9010E94220286E1BF
:1009300091E00E94BC018230D0F386E191E00E94F8
:10094000C201182F86E191E00E94C201512F40E0C0
:10095000282F30E0242B352BC9011F910895EF92E9
:10096000FF920F931F939C017B0106E111E0C801E8
:10097000B9010E94B201C801B7010E94FE01C8017D
:100980000E9401021F910F91FF90EF900895EF9246
:10099000FF920F931F939C017B0106E111E0C801B8
:1009A000B9010E94B201C80160E070E00E94FE013E
:1009B000C801B7010E94FE01C8010E9401021F91F7
:1009C0000F91FF90EF90089580E790E060E570E070
:1009D0000E94C70480E790E062E070E00E94AF04EC
:1009E00080E790E062E070E00E948F0408950E942A
:1009F000EF06209155013091560140E050E0621B16
:100A0000730B840B950B673471058105910510F408
:100A100080E008950E94EF0670935601609355019F
:100A200081E008950E94F704882341F10E94E404C4
:100A30009C019093520180935101009761F0E9E28B
:100A4000F1E0828193818193919381E0EF34F80703
:100A5000C1F731832083E9E2F1E088EE93E0208161
:100A600031812817390708F4C901329621E0E135B0
:100A7000F207A9F790935401809353018091530199
:100A8000909154018A35910548F08CE060E00E9415
:100A900081078BED91E06CE40E9477068091530111
:100AA000909154018535910548F48BED91E068E40F
:100AB0000E9477068CE061E00E94810764E670E0A6
:100AC00080E090E00E94FD06089586E191E00E949A
:100AD00025028BED91E040E855E260E070E00E9475
:100AE000C405E9E2F1E088EE93E08193919321E07F
:100AF000E135F207D1F78CE061E00E9461070895CB
:100B00000E9427070E9465050E941205FDCF1F92D3
:100B10000F920FB60F9211242F933F934F935F9331
:100B20006F937F938F939F93AF93BF93EF93FF93B5
:100B30004091C600E091D701F091D801CF01019614
:100B400060E870E00E94CE079C018091D9019091ED
:100B5000DA012817390739F0E95AFE4F40833093FC
:100B6000D8012093D701FF91EF91BF91AF919F9151
:100B70008F917F916F915F914F913F912F910F9046
:100B80000FBE0F901F901895AF92BF92CF92DF9239
:100B9000EF92FF920F931F93CF93DF936C017A0133
:100BA0008B01DC011496AD90BC901597CB01BA0176
:100BB00022E030E040E050E00E940308205C3D4B22
:100BC000404F5F4FCA01B901A80197010E94030875
:100BD000C901DA010197A109B109292F3A2F4B2F39
:100BE000552747FD5A950196A11DB11DE5012883A2
:100BF000E601EE81FF8181508083EA85FB852081BB
:100C000041E050E0CA010E8402C0880F991F0A9487
:100C1000E2F7282B2083EA85FB852081CA010F8417
:100C200002C0880F991F0A94E2F7282B2083EA85D7
:100C3000FB858081088802C0440F551F0A94E2F7A3
:100C4000842B8083DF91CF911F910F91FF90EF90C4
:100C5000DF90CF90BF90AF900895FC01A085B18543
:100C600021898C9190E0022E02C0959587950A9477
:100C7000E2F780FFF6CF0484F585E02D60830895C8
:100C80008AE091E09093DC018093DB0187E591E0BD
:100C90009093DE018093DD0185EC90E09093E0017C
:100CA0008093DF0184EC90E09093E2018093E10176
:100CB00080EC90E09093E4018093E30181EC90E07C
:100CC0009093E6018093E50186EC90E09093E80133
:100CD0008093E70184E08093E90183E08093EA0157
:100CE00087E08093EB0185E08093EC010895DC01BF
:100CF000ED91FC910190F081E02D099508951F92EE
:100D00000F920FB60F9211242F938F939F93AF934F
:100D1000BF938091ED019091EE01A091EF01B09110
:100D2000F0010196A11DB11D8093ED019093EE019C
:100D3000A093EF01B093F0018091F1019091F20145
:100D4000A091F301B091F4018050904CAF4FBF4F90
:100D50008093F1019093F201A093F301B093F40119
:100D600027C08091F1019091F201A091F301B0911F
:100D7000F40180589E43A040B0408093F1019093CD
:100D8000F201A093F301B093F4018091F5019091E9
:100D9000F601A091F701B091F8010196A11DB11DD6
:100DA0008093F5019093F601A093F701B093F801B9
:100DB0008091F1019091F201A091F301B091F401C1
:100DC00081589E43A040B04060F6BF91AF919F9183
:100DD0008F912F910F900FBE0F901F9018958FB786
:100DE000F8942091F5013091F6014091F70150916E
:100DF000F8018FBFB901CA010895EF92FF920F93D6
:100E00001F937B018C018FB7F8944091F5015091AD
:100E1000F6016091F7017091F8018FBF2FB7F89438
:100E20008091F5019091F601A091F701B091F80140
:100E30002FBF841B950BA60BB70BE816F9060A0704
:100E40001B0760F71F910F91FF90EF900895789422
:100E500084B5826084BD84B5816084BD85B58260BF
:100E600085BD85B5816085BDEEE6F0E0808181605D
:100E70008083E1E8F0E0808182608083808181600E
:100E80008083E0E8F0E0808181608083E1EBF0E046
:100E9000808184608083E0EBF0E0808181608083EA
:100EA000EAE7F0E0808184608083808182608083D3
:100EB0008081816080838081806880831092C100FE
:100EC0000895282F30E0C90186569F4FFC01949168
:100ED0002A573F4FF9018491882391F0E82FF0E0E1
:100EE000EE0FFF1FE859FF4FA591B491662329F437
:100EF0008C91909589238C9308958C91892B8C9358
:100F00000895482F50E0CA0182559F4FFC0124915B
:100F1000CA0186569F4FFC0194914A575F4FFA01D0
:100F200034913323D1F1222331F1233021F4809104
:100F300080008F7705C0243031F4809180008F7D50
:100F40008093800018C0213019F484B58F7704C0D5
:100F5000223021F484B58F7D84BD0DC0263021F46C
:100F60008091B0008F7705C0273029F48091B000C0
:100F70008F7D8093B000E32FF0E0EE0FFF1FEE585F
:100F8000FF4FA591B491662329F48C919095892304
:100F90008C9308958C91892B8C93089597FB092E3F
:100FA00007260AD077FD04D049D006D000201AF4D5
:100FB000709561957F4F0895F6F7909581959F4FB5
:100FC0000895A1E21A2EAA1BBB1BFD010DC0AA1F8A
:100FD000BB1FEE1FFF1FA217B307E407F50720F0A2
:100FE000A21BB30BE40BF50B661F771F881F991F1D
:100FF0001A9469F760957095809590959B01AC0166
:10100000BD01CF01089597FB092E05260ED057FD8F
:1010100004D0D7DF0AD0001C38F4509540953095A5
:1010200021953F4F4F4F5F4F0895F6F7909580956C
:10103000709561957F4F8F4F9F4F0895AA1BBB1BE3
:1010400051E107C0AA1FBB1FA617B70710F0A61BC8
:10105000B70B881F991F5A95A9F780959095BC01E9
:10106000CD010895EE0FFF1F0590F491E02D099436
:04107000F894FFCF22
:0C1074002000FD010000000000002D061F
:00000001FF
