:100000000C9436000C945E000C945E000C945E0020
:100010000C945E000C945E000C945E000C945E00E8
:100020000C945E000C945E000C945E000C945E00D8
:100030000C945E000C945E000C945E000C945E00C8
:100040000C944D070C945E000C945C050C945E00BF
:100050000C945E000C945E000C945E000C945E00A8
:100060000C94AF020C945E00A801150611241FBE6B
:10007000CFEFD8E0DEBFCDBF11E0A0E0B1E0EAE114
:10008000F1E102C005900D92AE34B107D9F712E04C
:10009000AEE4B1E001C01D92A531B107E1F710E077
:1000A000CCE6D0E004C02297FE010E948708C83643
:1000B000D107C9F70E9455050C948B080C940000D9
:1000C0000F931F93CF93DF93689F8001699F100D5B
:1000D000789F100D1124C8010E947C00EC0100974C
:1000E00029F060E070E0A8010E947E01CE01DF915E
:1000F000CF911F910F910895CF93DF93BC01823070
:10010000910510F462E070E0A0911302B091140226
:10011000ED01E0E0F0E040E050E021C0888199810D
:100120008617970769F48A819B81309719F093832A
:10013000828304C09093140280931302FE0134C0A2
:100140006817790738F44115510519F08417950798
:1001500008F4AC01FE018A819B819C01E901209792
:10016000E9F641155105A9F1CA01861B970B0497C1
:1001700008F4BA01E0E0F0E02AC08D919C9111975B
:1001800084179507F9F46417750781F412968D9119
:100190009C911397309719F09383828304C09093B6
:1001A000140280931302FD0132964CC0CA01861BD3
:1001B000970BFD01E80FF91F6193719302978D93DF
:1001C0009C9340C0FD01828193819C01D9011097CD
:1001D000A1F68091110290911202892B41F4809135
:1001E0003A0190913B019093120280931102409149
:1001F0003C0150913D014115510541F44DB75EB7A9
:100200008091380190913901481B590B20911102BE
:1002100030911202CA01821B930B8617970780F058
:10022000AB014E5F5F4F8417950750F0420F531F8D
:100230005093120240931102F9016193719302C02D
:10024000E0E0F0E0CF01DF91CF910895CF93DF930D
:10025000009709F450C0EC0122971B821A82A091EA
:100260001302B0911402109709F140E050E0AC176E
:10027000BD0708F1BB83AA83FE0121913191E20FF2
:10028000F31FAE17BF0779F48D919C911197280F3A
:10029000391F2E5F3F4F3983288312968D919C9191
:1002A00013979B838A834115510571F4D0931402EF
:1002B000C093130220C012968D919C911397AD01AB
:1002C000009711F0DC01D3CFFA01D383C2832191CF
:1002D0003191E20FF31FCE17DF0769F4888199810E
:1002E000280F391F2E5F3F4FFA01318320838A8107
:1002F0009B8193838283DF91CF910895DC0101C0BC
:100300006D9341505040E0F7089581E0809357018C
:1003100060935201109255011092560108958091F8
:10032000510190915001891B089590915001809145
:100330005101981710F080E00895E0914E01F0917E
:100340004F01E90FF11D80819F5F90935001089547
:100350000895DF93CF930F92CDB7DEB76983809175
:1003600057018823A9F0809156018032B0F4809122
:100370005501E0915301F0915401E80FF11D6083A4
:10038000809155018F5F809355018093560105C080
:10039000CE01019661E00E9492020F90CF91DF9111
:1003A00008950E94A901089560915301709154012C
:1003B000809152014091560121E00E944D0210921D
:1003C000550110925601109257010895862F6091A1
:1003D0004E0170914F01413208F040E20E94170235
:1003E000109250018093510108950E94E6010895F2
:1003F00080E290E061E070E00E94600080934E0136
:1004000090934F01109250011092510180E290E0C0
:1004100061E070E00E94600080935301909354016A
:1004200010925501109256010E9431040895982FA0
:10043000413210F040E02FC0809159018823E1F74C
:1004400081E0809359018FEF80936A0110926101DE
:1004500040936201990F916090935A0185EE8093C9
:10046000BC00809159018130E1F3809161018417D2
:1004700010F440916101A0915F01B091600120E012
:1004800030E007C0FB01E20FF31F8D9180832F5FE7
:100490003F4F2417B8F3842F08951F93582F122F1E
:1004A000413210F081E03CC0809159018823E1F78E
:1004B00082E0809359018FEF80936A01109261016D
:1004C00040936201A0915F01B0916001FB0102C005
:1004D00081918D938E2F861B8417D0F3852F90E00A
:1004E000880F991F80935A0185EE8093BC001123D9
:1004F00021F0809159018230E1F380916A018F3FB0
:1005000011F480E00DC080916A01803211F482E024
:1005100007C080916A01803311F084E001C083E05C
:100520001F910895482F613210F081E00895809165
:100530005901843011F082E0089560936601A09122
:100540006301B0916401842F9C01F90102C0819183
:100550008D938E2F841B8617D0F380E008951F9211
:100560000F920FB60F9211242F933F934F935F93E7
:100570006F937F938F939F93AF93BF93EF93FF936B
:100580008091B90090E0887F90708036910509F4E1
:10059000E2C081369105CCF58832910509F47BC023
:1005A00089329105B4F48031910509F46FC081312D
:1005B00091053CF4009709F438C1089709F040C14F
:1005C00065C08831910509F466C0809709F038C18B
:1005D0007FC08034910509F4A3C08134910544F4AF
:1005E0008033910509F47FC0C89709F029C186C0FE
:1005F0008035910509F486C08835910509F495C0C8
:100600008834910509F01CC19EC08839910509F410
:1006100004C189399105ECF48837910509F49BC030
:10062000893791054CF48836910509F494C08037D8
:10063000910509F005C18FC08838910509F4EDC016
:100640008039910509F48DC08038910509F0F8C012
:1006500088C0803B910509F4B2C0813B91054CF400
:10066000803A910509F491C0883A910509F0E8C0F3
:10067000A6C0803C910509F4D4C0883C910509F4DA
:10068000D0C0883B910509F0DBC0B1C080915A0110
:100690008093BB00C0C09091610180916201981766
:1006A00078F490916101E0915F01F0916001E90FB0
:1006B000F11D80818093BB009F5F90936101ABC06F
:1006C00085ED8093BC008091BC0084FDFCCFB6C05A
:1006D00080E280936A0185ED8093BC008091BC002C
:1006E00084FDFCCFABC080E380936A0185ED8093ED
:1006F000BC008091BC0084FDFCCFA0C088E3809347
:100700006A018FC0809161019091BB00E0915F010F
:10071000F0916001E80FF11D90838F5F809361017C
:10072000909161018091620174C08091610190910A
:10073000BB00E0915F01F0916001E80FF11D908333
:100740008F5F8093610185ED8093BC008091BC0038
:1007500084FDFCCF73C083E080935901109269013E
:100760005AC080916901803208F057C080916901B8
:100770009091BB00E0916701F0916801E80FF11DD5
:1007800090838F5F8093690146C0809169018032B8
:1007900048F480916901E0916701F0916801E80FE8
:1007A000F11D108260916901E0915D01F0915E019F
:1007B000809167019091680170E0099532C084E0F2
:1007C000809359011092650110926601E0915B01DE
:1007D000F0915C01099580916601882341F481E0E4
:1007E00080936601E0916301F09164011082909121
:1007F0006501E0916301F0916401E90FF11D8081D1
:100800008093BB009F5F90936501909165018091FB
:100810006601981710F485EC01C085E88093BC0050
:100820000FC085EC8093BC0009C010926A0185ED71
:100830008093BC008091BC0084FDFCCF10925901D4
:10084000FF91EF91BF91AF919F918F917F916F91A8
:100850005F914F913F912F910F900FBE0F901F907E
:10086000189510925901449A459AE9EBF0E080817D
:100870008E7F808380818D7F808388E48093B80021
:1008800085E48093BC0080E290E061E070E00E942B
:10089000600080935F019093600180E290E061E0EE
:1008A00070E00E946000809363019093640180E295
:1008B00090E061E070E00E94600080936701909397
:1008C000680108951F939C01AB0188E591E0B9018F
:1008D0000E94F50188E591E00E948F018230D0F3FB
:1008E00088E591E00E949501182F88E591E00E942B
:1008F0009501512F40E0282F30E0242B352BC901E2
:100900001F910895EF92FF920F931F939C017B011B
:1009100008E511E0C801B9010E948501C801B701CD
:100920000E94D101C8010E94D4011F910F91FF9034
:10093000EF900895EF92FF920F931F939C017B011C
:1009400008E511E0C801B9010E948501C80160E015
:1009500070E00E94D101C801B7010E94D101C80115
:100960000E94D4011F910F91FF90EF90089580E7AE
:1009700090E060E570E00E949A0464EF71E080E02E
:1009800090E00E94BD0780E790E062E070E00E9486
:10099000820480E790E062E070E00E9462040895C3
:1009A0000F931F93BC0103EF11E0C8010E9445079C
:1009B000C80164E171E00E947B061F910F910895C8
:1009C0000E94B7049C0190936C0180936B01009787
:1009D00021F1809140019091410190933F018093DA
:1009E0003E01809142019091430190934101809397
:1009F000400180914401909145019093430180937F
:100A00004201809146019091470190934501809366
:100A10004401309347012093460180913E0190911B
:100A20003F0123E0893E920710F088EE93E0209189
:100A30004001309141012817390708F4C90120917C
:100A40004201309143012817390708F4C901209168
:100A50004401309145012817390708F4C901209154
:100A60004601309147012817390708F4C9019093CE
:100A70006E0180936D010E94D00408950F931F931F
:100A800088E591E00E94F80103EF11E0C80140E819
:100A900055E260E070E00E949905C8016CE171E0E8
:100AA0000E947B061F910F9108950E94E7070E9404
:100AB0003E050E94E004FDCF1F920F920FB60F92E9
:100AC00011242F933F934F935F936F937F938F9353
:100AD0009F93AF93BF93EF93FF934091C600E09134
:100AE000EF01F091F001CF01019660E870E00E9403
:100AF00021089C018091F1019091F201281739079A
:100B000039F0E159FE4F40833093F0012093EF011B
:100B1000FF91EF91BF91AF919F918F917F916F91D5
:100B20005F914F913F912F910F900FBE0F901F90AB
:100B30001895AF92BF92CF92DF92EF92FF920F93F0
:100B40001F93CF93DF936C017A018B01DC01149624
:100B5000AD90BC901597CB01BA0122E030E040E0A7
:100B600050E00E945608205C3D4B404F5F4FCA0149
:100B7000B901A80197010E945608C901DA0101973D
:100B8000A109B109292F3A2F4B2F552747FD5A9517
:100B90000196A11DB11DE5012883E601EE81FF81CB
:100BA00081508083EA85FB85208141E050E0CA01C5
:100BB0000E8402C0880F991F0A94E2F7282B208325
:100BC000EA85FB852081CA010F8402C0880F991F26
:100BD0000A94E2F7282B2083EA85FB858081088828
:100BE00002C0440F551F0A94E2F7842B8083DF91E3
:100BF000CF911F910F91FF90EF90DF90CF90BF901A
:100C0000AF900895FC01A085B18521898C9190E079
:100C1000022E02C0959587950A94E2F780FFF6CFE1
:100C20000484F585E02D608308958CE491E0909331
:100C3000F4018093F3018FE691E09093F6018093A5
:100C4000F50185EC90E09093F8018093F70184EC36
:100C500090E09093FA018093F90180EC90E09093FA
:100C6000FC018093FB0181EC90E09093FE01809366
:100C7000FD0186EC90E0909300028093FF0184E0F8
:100C80008093010283E08093020287E08093030255
:100C900085E08093040208950F931F93CF93DF9311
:100CA0008C01EB0109C02196D801ED91FC910190D6
:100CB000F081E02DC801099568816623A1F7DF91D5
:100CC000CF911F910F9108950F931F938C01DC0119
:100CD000ED91FC910190F081E02D6DE00995D80136
:100CE000ED91FC910190F081E02DC8016AE0099539
:100CF0001F910F9108950F931F938C010E944C0632
:100D0000C8010E9464061F910F9108952F923F928F
:100D10004F925F926F927F928F929F92AF92BF920B
:100D2000CF92DF92EF92FF920F931F93DF93CF93B7
:100D3000CDB7DEB7A0970FB6F894DEBF0FBECDBF1C
:100D40001C016A017B01411551056105710549F4DA
:100D5000DC01ED91FC910190F081E02D60E30995BB
:100D600054C0882499245401422E552466247724A3
:100D700001E010E00C0F1D1F080D191DC701B60181
:100D8000A30192010E943408F80160830894811C39
:100D9000911CA11CB11CC701B601A30192010E94C4
:100DA0003408C901DA016C017D01C114D104E104E8
:100DB000F104F1F681E0E82EF12CEC0EFD1EE80CBA
:100DC000F91C3E010894611C711CD501C4010197F6
:100DD000A109B1096C01C818D90814C0F601EE0DBB
:100DE000FF1D60816A3010F4605D01C0695CD10153
:100DF000ED91FC910190F081E02DC10109950894DD
:100E0000E108F1086E147F0449F7A0960FB6F89434
:100E1000DEBF0FBECDBFCF91DF911F910F91FF902D
:100E2000EF90DF90CF90BF90AF909F908F907F908A
:100E30006F905F904F903F902F900895EF92FF92A8
:100E40000F931F93CF93DF93EC017A018B0177FF10
:100E50000FC0E881F9810190F081E02D6DE20995E4
:100E600010950095F094E094E11CF11C011D111DFA
:100E7000CE01B801A7012AE00E948606DF91CF913A
:100E80001F910F91FF90EF900895AB01662757FDDA
:100E90006095762F0E941E0708951F920F920FB63D
:100EA0000F9211242F938F939F93AF93BF938091B1
:100EB000050290910602A0910702B09108020196E6
:100EC000A11DB11D8093050290930602A093070215
:100ED000B09308028091090290910A02A0910B023E
:100EE000B0910C028050904CAF4FBF4F80930902DD
:100EF00090930A02A0930B02B0930C0227C080913A
:100F0000090290910A02A0910B02B0910C02805844
:100F10009E43A040B0408093090290930A02A093A0
:100F20000B02B0930C0280910D0290910E02A091E1
:100F30000F02B09110020196A11DB11D80930D0208
:100F400090930E02A0930F02B093100280910902B9
:100F500090910A02A0910B02B0910C0281589E431D
:100F6000A040B04060F6BF91AF919F918F912F91BB
:100F70000F900FBE0F901F901895EF92FF920F9356
:100F80001F937B018C018FB7F89440910D02509113
:100F90000E0260910F02709110028FBF2FB7F8946C
:100FA00080910D0290910E02A0910F02B09110025B
:100FB0002FBF841B950BA60BB70BE816F9060A0783
:100FC0001B0760F71F910F91FF90EF9008957894A1
:100FD00084B5826084BD84B5816084BD85B582603E
:100FE00085BD85B5816085BDEEE6F0E080818160DC
:100FF0008083E1E8F0E0808182608083808181608D
:101000008083E0E8F0E0808181608083E1EBF0E0C4
:10101000808184608083E0EBF0E080818160808368
:10102000EAE7F0E080818460808380818260808351
:101030008081816080838081806880831092C1007C
:10104000089597FB092E07260AD077FD04D049D0D2
:1010500006D000201AF4709561957F4F0895F6F739
:10106000909581959F4F0895A1E21A2EAA1BBB1B54
:10107000FD010DC0AA1FBB1FEE1FFF1FA217B30764
:10108000E407F50720F0A21BB30BE40BF50B661F7A
:10109000771F881F991F1A9469F76095709580953E
:1010A00090959B01AC01BD01CF01089597FB092EDE
:1010B00005260ED057FD04D0D7DF0AD0001C38F427
:1010C00050954095309521953F4F4F4F5F4F089574
:1010D000F6F790958095709561957F4F8F4F9F4F54
:1010E0000895AA1BBB1B51E107C0AA1FBB1FA6176F
:1010F000B70710F0A61BB70B881F991F5A95A9F7C1
:1011000080959095BC01CD010895EE0FFF1F0590CD
:0A111000F491E02D0994F894FFCF4C
:10111A0053656E736F7256616C41727261795B00CE
:10112A005D203D0020696E6368657300426C6163EF
:10113A006B20426F7820636F6D696E67206F6E6CEB
:10114A00696E65206E6F7700200015020000E803C3
:0E115A00E803E803E803E803000000000206D3
:00000001FF
