:100000000C9463000C948B000C948B000C948B006C
:100010000C948B000C948B000C948B000C948B0034
:100020000C948B000C948B000C948B000C948B0024
:100030000C948B000C948B000C948B000C948B0014
:100040000C9496070C948B000C9495050C948B00E3
:100050000C948B000C948B000C948B000C948B00F4
:100060000C94DC020C948B0000000000240027009C
:100070002A0000000000250028002B0000000000DE
:1000800023002600290004040404040404040202DA
:100090000202020203030303030301020408102007
:1000A0004080010204081020010204081020000012
:1000B0000007000201000003040600000000000029
:1000C0000000D5014E0611241FBECFEFD8E0DEBFE1
:1000D000CDBF11E0A0E0B1E0E2EAF2E102C005909C
:1000E0000D92AC33B107D9F712E0ACE3B1E001C037
:1000F0001D92A931B107E1F710E0C6ECD0E004C0D1
:100100002297FE010E944B09C23CD107C9F70E9409
:100110008E050C944F090C9400000F931F93CF93FE
:10012000DF93689F8001699F100D789F100D112447
:10013000C8010E94A900EC01009729F060E070E07E
:10014000A8010E94AB01CE01DF91CF911F910F91C9
:100150000895CF93DF93BC018230910510F462E0E3
:1001600070E0A0911702B0911802ED01E0E0F0E01C
:1001700040E050E021C0888199818617970769F493
:100180008A819B81309719F09383828304C0909376
:10019000180280931702FE0134C06817790738F4FB
:1001A0004115510519F08417950708F4AC01FE01BB
:1001B0008A819B819C01E9012097E9F6411551054F
:1001C000A9F1CA01861B970B049708F4BA01E0E075
:1001D000F0E02AC08D919C91119784179507F9F44E
:1001E0006417750781F412968D919C91139730973F
:1001F00019F09383828304C09093180280931702AE
:10020000FD0132964CC0CA01861B970BFD01E80F19
:10021000F91F6193719302978D939C9340C0FD01E8
:10022000828193819C01D9011097A1F680911502DA
:1002300090911602892B41F4809132019091330103
:10024000909316028093150240913401509135012C
:100250004115510541F44DB75EB780913001909141
:100260003101481B590B2091150230911602CA0129
:10027000821B930B8617970780F0AB014E5F5F4F91
:100280008417950750F0420F531F50931602409366
:100290001502F9016193719302C0E0E0F0E0CF0133
:1002A000DF91CF910895CF93DF93009709F450C069
:1002B000EC0122971B821A82A0911702B0911802BA
:1002C000109709F140E050E0AC17BD0708F1BB837F
:1002D000AA83FE0121913191E20FF31FAE17BF07F0
:1002E00079F48D919C911197280F391F2E5F3F4F04
:1002F0003983288312968D919C9113979B838A83CF
:100300004115510571F4D0931802C093170220C013
:1003100012968D919C911397AD01009711F0DC011D
:10032000D3CFFA01D383C28321913191E20FF31F1E
:10033000CE17DF0769F488819981280F391F2E5F56
:100340003F4FFA01318320838A819B81938382838B
:10035000DF91CF910895DC0101C06D934150504071
:10036000E0F7089581E08093450160934001109289
:10037000430110924401089580913F0190913E0104
:10038000891B089590913E0180913F01981710F0CC
:1003900080E00895E0913C01F0913D01E90FF11DED
:1003A00080819F5F90933E0108950895DF93CF93DE
:1003B0000F92CDB7DEB76983809145018823A9F0FC
:1003C000809144018032B0F480914301E091410179
:1003D000F0914201E80FF11D6083809143018F5F2E
:1003E000809343018093440105C0CE01019661E0F2
:1003F0000E94BF020F90CF91DF9108950E94D60115
:1004000008956091410170914201809140014091B5
:10041000440121E00E947A021092430110924401AB
:10042000109245010895862F60913C0170913D0125
:10043000413208F040E20E94440210923E01809353
:100440003F0108950E941302089580E290E061E068
:1004500070E00E948D0080933C0190933D011092CA
:100460003E0110923F0180E290E061E070E00E9466
:100470008D008093410190934201109243011092AC
:1004800044010E945E040895982F413210F040E02C
:100490002FC0809147018823E1F781E080934701D5
:1004A0008FEF8093580110924F0140935001990FA4
:1004B00091609093480185EE8093BC008091470144
:1004C0008130E1F380914F01841710F440914F0186
:1004D000A0914D01B0914E0120E030E007C0FB013A
:1004E000E20FF31F8D9180832F5F3F4F2417B8F3E6
:1004F000842F08951F93582F122F413210F081E05E
:100500003CC0809147018823E1F782E08093470156
:100510008FEF8093580110924F0140935001A091AA
:100520004D01B0914E01FB0102C081918D938E2F40
:10053000861B8417D0F3852F90E0880F991F809336
:10054000480185EE8093BC00112321F08091470182
:100550008230E1F3809158018F3F11F480E00DC0AB
:1005600080915801803211F482E007C080915801D7
:10057000803311F084E001C083E01F910895482F7B
:10058000613210F081E0089580914701843011F0CC
:1005900082E0089560935401A0915101B0915201FD
:1005A000842F9C01F90102C081918D938E2F841BB1
:1005B0008617D0F380E008951F920F920FB60F9226
:1005C00011242F933F934F935F936F937F938F9358
:1005D0009F93AF93BF93EF93FF938091B90090E007
:1005E000887F90708036910509F4E2C081369105CC
:1005F000CCF58832910509F47BC089329105B4F4B9
:100600008031910509F46FC0813191053CF4009768
:1006100009F438C1089709F040C165C088319105D7
:1006200009F466C0809709F038C17FC08034910515
:1006300009F4A3C08134910544F48033910509F491
:100640007FC0C89709F029C186C08035910509F49B
:1006500086C08835910509F495C08834910509F064
:100660001CC19EC08839910509F404C189399105DE
:10067000ECF48837910509F49BC0893791054CF457
:100680008836910509F494C08037910509F005C1B9
:100690008FC08838910509F4EDC08039910509F4BF
:1006A0008DC08038910509F0F8C088C0803B910565
:1006B00009F4B2C0813B91054CF4803A910509F4EC
:1006C00091C0883A910509F0E8C0A6C0803C910528
:1006D00009F4D4C0883C910509F4D0C0883B910549
:1006E00009F0DBC0B1C0809148018093BB00C0C05D
:1006F00090914F0180915001981778F490914F019B
:10070000E0914D01F0914E01E90FF11D8081809340
:10071000BB009F5F90934F01ABC085ED8093BC0001
:100720008091BC0084FDFCCFB6C080E2809358016C
:1007300085ED8093BC008091BC0084FDFCCFABC0F4
:1007400080E38093580185ED8093BC008091BC00CC
:1007500084FDFCCFA0C088E3809358018FC08091B6
:100760004F019091BB00E0914D01F0914E01E80FD7
:10077000F11D90838F5F80934F0190914F01809185
:10078000500174C080914F019091BB00E0914D01E8
:10079000F0914E01E80FF11D90838F5F80934F0120
:1007A00085ED8093BC008091BC0084FDFCCF73C0BC
:1007B00083E080934701109257015AC080915701FE
:1007C000803208F057C0809157019091BB00E091B2
:1007D0005501F0915601E80FF11D90838F5F8093D2
:1007E000570146C080915701803248F480915701EB
:1007F000E0915501F0915601E80FF11D10826091D2
:100800005701E0914B01F0914C018091550190917D
:10081000560170E0099532C084E080934701109240
:10082000530110925401E0914901F0914A01099558
:1008300080915401882341F481E080935401E09138
:100840005101F0915201108290915301E0915101B8
:10085000F0915201E90FF11D80818093BB009F5FF1
:10086000909353019091530180915401981710F483
:1008700085EC01C085E88093BC000FC085EC8093B7
:10088000BC0009C01092580185ED8093BC00809196
:10089000BC0084FDFCCF10924701FF91EF91BF9106
:1008A000AF919F918F917F916F915F914F913F9108
:1008B0002F910F900FBE0F901F9018951092470127
:1008C000449A459AE9EBF0E080818E7F80838081B5
:1008D0008D7F808388E48093B80085E48093BC009A
:1008E00080E290E061E070E00E948D0080934D0115
:1008F00090934E0180E290E061E070E00E948D00F4
:10090000809351019093520180E290E061E070E0A9
:100910000E948D00809355019093560108951F9376
:100920009C01AB0186E491E0B9010E94220286E4B9
:1009300091E00E94BC018230D0F386E491E00E94F5
:10094000C201182F86E491E00E94C201512F40E0BD
:10095000282F30E0242B352BC9011F910895EF92E9
:10096000FF920F931F939C017B0106E411E0C801E5
:10097000B9010E94B201C801B7010E94FE01C8017D
:100980000E9401021F910F91FF90EF900895EF9246
:10099000FF920F931F939C017B0106E411E0C801B5
:1009A000B9010E94B201C80160E070E00E94FE013E
:1009B000C801B7010E94FE01C8010E9401021F91F7
:1009C0000F91FF90EF90089580E790E060E570E070
:1009D0000E94C70480E790E062E070E00E94AF04EC
:1009E00080E790E062E070E00E948F040895BC010F
:1009F00087EF91E00E94860708950E9406082091E3
:100A000071013091720140E050E0621B730B840B66
:100A1000950B653671058105910510F480E0089508
:100A20000E940608709372016093710181E008953D
:100A30000E94FD04882351F10E94E4049C019093DC
:100A40006E0180936D01009761F0E9E5F1E082812C
:100A500093818193919381E0EB36F807C1F731835D
:100A60002083E9E5F1E088EE93E0208131812817C9
:100A7000390708F4C901329621E0ED36F207A9F7EB
:100A80009093700180936F010E94F70480916F0131
:100A9000909170018135910548F08CE060E00E94F2
:100AA000980887EF91E06CE40E94850680916F01C1
:100AB000909170018035910548F487EF91E068E4EA
:100AC0000E9485068CE061E00E9498086AEF70E061
:100AD00080E090E00E941408089586E491E00E946E
:100AE000250287EF91E040E855E260E070E00E9467
:100AF000D205E9E5F1E088EE93E08193919321E05E
:100B0000ED36F207D1F78CE061E00E94780887EFBC
:100B100091E064E171E00E94BC0608950E943E08E5
:100B20000E946D050E941805FDCF1F920F920FB60F
:100B30000F9211242F933F934F935F936F937F9363
:100B40008F939F93AF93BF93EF93FF934091C60012
:100B5000E091F301F091F401CF01019660E870E0BB
:100B60000E94E5089C018091F5019091F6012817FB
:100B7000390739F0ED58FE4F40833093F40120934C
:100B8000F301FF91EF91BF91AF919F918F917F9171
:100B90006F915F914F913F912F910F900FBE0F90EA
:100BA0001F901895AF92BF92CF92DF92EF92FF9273
:100BB0000F931F93CF93DF936C017A018B01DC01BC
:100BC0001496AD90BC901597CB01BA0122E030E0AD
:100BD00040E050E00E941A09205C3D4B404F5F4FBF
:100BE000CA01B901A80197010E941A09C901DA01D5
:100BF0000197A109B109292F3A2F4B2F552747FDFE
:100C00005A950196A11DB11DE5012883E601EE81EB
:100C1000FF8181508083EA85FB85208141E050E09F
:100C2000CA010E8402C0880F991F0A94E2F7282B8C
:100C30002083EA85FB852081CA010F8402C0880FCA
:100C4000991F0A94E2F7282B2083EA85FB8580818F
:100C5000088802C0440F551F0A94E2F7842B808352
:100C6000DF91CF911F910F91FF90EF90DF90CF9088
:100C7000BF90AF900895FC01A085B18521898C912A
:100C800090E0022E02C0959587950A94E2F780FFC6
:100C9000F6CF0484F585E02D608308958AE391E022
:100CA0009093F8018093F70183E791E09093FA0124
:100CB0008093F90185EC90E09093FC018093FB0117
:100CC00084EC90E09093FE018093FD0180EC90E035
:100CD000909300028093FF0181EC90E090930202D8
:100CE0008093010286EC90E09093040280930302CB
:100CF00084E08093050283E08093060287E080937E
:100D0000070285E0809308020895DC01ED91FC91D3
:100D10000190F081E02D099508950F931F93CF93D3
:100D2000DF938C01EB0109C02196D801ED91FC9174
:100D30000190F081E02DC801099568816623A1F733
:100D4000DF91CF911F910F9108950F931F938C0105
:100D5000DC01ED91FC910190F081E02D6DE00995B1
:100D6000D801ED91FC910190F081E02DC8016AE07D
:100D700009951F910F9108950F931F938C010E9465
:100D80008D06C8010E94A5061F910F9108952F920C
:100D90003F924F925F926F927F928F929F92AF920B
:100DA000BF92CF92DF92EF92FF920F931F93DF9348
:100DB000CF93CDB7DEB7A0970FB6F894DEBF0FBEC6
:100DC000CDBF1C016A017B0141155105610571050B
:100DD00049F4DC01ED91FC910190F081E02D60E39C
:100DE000099554C0882499245401422E5524662420
:100DF000772401E010E00C0F1D1F080D191DC7011D
:100E0000B601A30192010E94F808F80160830894DA
:100E1000811C911CA11CB11CC701B601A301920148
:100E20000E94F808C901DA016C017D01C114D104E6
:100E3000E104F104F1F681E0E82EF12CEC0EFD1E48
:100E4000E80CF91C3E010894611C711CD501C40119
:100E50000197A109B1096C01C818D90814C0F6019D
:100E6000EE0DFF1D60816A3010F4605D01C0695CA9
:100E7000D101ED91FC910190F081E02DC101099526
:100E80000894E108F1086E147F0449F7A0960FB6A4
:100E9000F894DEBF0FBECDBFCF91DF911F910F91B0
:100EA000FF90EF90DF90CF90BF90AF909F908F908A
:100EB0007F906F905F904F903F902F900895EF92AA
:100EC000FF920F931F93CF93DF93EC017A018B0175
:100ED00077FF0FC0E881F9810190F081E02D6DE28C
:100EE000099510950095F094E094E11CF11C011D0A
:100EF000111DCE01B801A7012AE00E94C706DF91AB
:100F0000CF911F910F91FF90EF9008950F931F9332
:100F10008C01AB01662757FD6095762F0E945F0715
:100F2000C8010E94A5061F910F9108951F920F926C
:100F30000FB60F9211242F938F939F93AF93BF936C
:100F40008091090290910A02A0910B02B0910C02CB
:100F50000196A11DB11D8093090290930A02A093EE
:100F60000B02B0930C0280910D0290910E02A091A1
:100F70000F02B09110028050904CAF4FBF4F809342
:100F80000D0290930E02A0930F02B093100227C09F
:100F900080910D0290910E02A0910F02B09110026B
:100FA00080589E43A040B04080930D0290930E0263
:100FB000A0930F02B093100280911102909112023F
:100FC000A0911302B09114020196A11DB11D80934E
:100FD000110290931202A0931302B0931402809115
:100FE0000D0290910E02A0910F02B0911002815853
:100FF0009E43A040B04060F6BF91AF919F918F910A
:101000002F910F900FBE0F901F9018958FB7F894E7
:10101000209111023091120240911302509114025A
:101020008FBFB901CA010895EF92FF920F931F93EA
:101030007B018C018FB7F8944091110250911202FC
:1010400060911302709114028FBF2FB7F8948091B2
:10105000110290911202A0911302B09114022FBFBD
:10106000841B950BA60BB70BE816F9060A071B079E
:1010700060F71F910F91FF90EF900895789484B5D9
:10108000826084BD84B5816084BD85B5826085BD84
:1010900085B5816085BDEEE6F0E08081816080836A
:1010A000E1E8F0E0808182608083808181608083DC
:1010B000E0E8F0E0808181608083E1EBF0E0808116
:1010C00084608083E0EBF0E0808181608083EAE7E8
:1010D000F0E0808184608083808182608083808171
:1010E000816080838081806880831092C100089530
:1010F000282F30E0C90186569F4FFC0194912A5752
:101100003F4FF9018491882391F0E82FF0E0EE0F32
:10111000FF1FE859FF4FA591B491662329F48C91E4
:10112000909589238C9308958C91892B8C930895A5
:10113000482F50E0CA0182559F4FFC012491CA01FB
:1011400086569F4FFC0194914A575F4FFA013491A4
:101150003323D1F1222331F1233021F48091800017
:101160008F7705C0243031F4809180008F7D80938B
:10117000800018C0213019F484B58F7704C0223064
:1011800021F484B58F7D84BD0DC0263021F480917B
:10119000B0008F7705C0273029F48091B0008F7D93
:1011A0008093B000E32FF0E0EE0FFF1FEE58FF4FEB
:1011B000A591B491662329F48C91909589238C9301
:1011C00008958C91892B8C93089597FB092E0726FF
:1011D0000AD077FD04D049D006D000201AF47095CB
:1011E00061957F4F0895F6F7909581959F4F0895EB
:1011F000A1E21A2EAA1BBB1BFD010DC0AA1FBB1F1B
:10120000EE1FFF1FA217B307E407F50720F0A21B8C
:10121000B30BE40BF50B661F771F881F991F1A94F9
:1012200069F760957095809590959B01AC01BD0123
:10123000CF01089597FB092E05260ED057FD04D047
:10124000D7DF0AD0001C38F4509540953095219591
:101250003F4F4F4F5F4F0895F6F7909580957095EB
:1012600061957F4F8F4F9F4F0895AA1BBB1B51E184
:1012700007C0AA1FBB1FA617B70710F0A61BB70B06
:10128000881F991F5A95A9F780959095BC01CD01AB
:101290000895EE0FFF1F0590F491E02D0994F89446
:0212A000FFCF7E
:1012A20053656E736F7256616C41727261795B0045
:1012B2005D203D00426C61636B20426F7820636F5A
:1012C2006D696E67206F6E6C696E65206E6F770058
:0C12D200200019020000000000003B0694
:00000001FF
