:100000000C9463000C948B000C948B000C948B006C
:100010000C948B000C948B000C948B000C948B0034
:100020000C948B000C948B000C948B000C948B0024
:100030000C948B000C948B000C948B000C948B0014
:100040000C9410060C948B000C9403040C948B00FD
:100050000C948B000C948B000C948B000C948B00F4
:100060000C94D2010C948B000000000024002700A7
:100070002A0000000000250028002B0000000000DE
:1000800023002600290004040404040404040202DA
:100090000202020203030303030301020408102007
:1000A0004080010204081020010204081020000012
:1000B0000007000201000003040600000000000029
:1000C0000000B201F80411241FBECFEFD8E0DEBF5C
:1000D000CDBF11E0A0E0B1E0E6E9FFE002C005908D
:1000E0000D92A231B107D9F711E0A2E1B1E001C050
:1000F0001D92A93DB107E1F710E0C6ECD0E004C0C5
:100100002297FE010E94C507C23CD107C9F70E9491
:10011000FC030C94C9070C9400000F931F93CF931A
:10012000DF93689F8001699F100D789F100D112447
:10013000C8010E94A900EC01009729F060E070E07E
:10014000A8010E94AB01CE01DF91CF911F910F91C9
:100150000895CF93DF93BC018230910510F462E0E3
:1001600070E0A091D701B091D801ED01E0E0F0E09E
:1001700040E050E021C0888199818617970769F493
:100180008A819B81309719F09383828304C0909376
:10019000D8018093D701FE0134C06817790738F47D
:1001A0004115510519F08417950708F4AC01FE01BB
:1001B0008A819B819C01E9012097E9F6411551054F
:1001C000A9F1CA01861B970B049708F4BA01E0E075
:1001D000F0E02AC08D919C91119784179507F9F44E
:1001E0006417750781F412968D919C91139730973F
:1001F00019F09383828304C09093D8018093D70130
:10020000FD0132964CC0CA01861B970BFD01E80F19
:10021000F91F6193719302978D939C9340C0FD01E8
:10022000828193819C01D9011097A1F68091D5011B
:100230009091D601892B41F48091020190910301A4
:100240009093D6018093D50140910401509105010E
:100250004115510541F44DB75EB780910001909171
:100260000101481B590B2091D5013091D601CA01DB
:10027000821B930B8617970780F0AB014E5F5F4F91
:100280008417950750F0420F531F5093D6014093A7
:10029000D501F9016193719302C0E0E0F0E0CF0174
:1002A000DF91CF910895CF93DF93009709F450C069
:1002B000EC0122971B821A82A091D701B091D8013C
:1002C000109709F140E050E0AC17BD0708F1BB837F
:1002D000AA83FE0121913191E20FF31FAE17BF07F0
:1002E00079F48D919C911197280F391F2E5F3F4F04
:1002F0003983288312968D919C9113979B838A83CF
:100300004115510571F4D093D801C093D70120C095
:1003100012968D919C911397AD01009711F0DC011D
:10032000D3CFFA01D383C28321913191E20FF31F1E
:10033000CE17DF0769F488819981280F391F2E5F56
:100340003F4FFA01318320838A819B81938382838B
:10035000DF91CF910895DC0101C06D934150504071
:10036000E0F70895089580E290E061E070E00E9477
:100370008D0080931201909313011092140110923A
:10038000150180E290E061E070E00E948D008093B2
:1003900016019093170110921801109219010E94F2
:1003A000540308951F920F920FB60F9211242F93AA
:1003B0003F934F935F936F937F938F939F93AF93ED
:1003C000BF93EF93FF938091B90090E0887F907086
:1003D0008036910509F4E2C081369105CCF588326A
:1003E000910509F47BC089329105B4F480319105FF
:1003F00009F46FC0813191053CF4009709F438C1CC
:10040000089709F040C165C08831910509F466C0BC
:10041000809709F038C17FC08034910509F4A3C0EA
:100420008134910544F48033910509F47FC0C89765
:1004300009F029C186C08035910509F486C0883548
:10044000910509F495C08834910509F01CC19EC03E
:100450008839910509F404C189399105ECF488378C
:10046000910509F49BC0893791054CF488369105B4
:1004700009F494C08037910509F005C18FC0883810
:10048000910509F4EDC08039910509F48DC08038DB
:10049000910509F0F8C088C0803B910509F4B2C00D
:1004A000813B91054CF4803A910509F491C0883A5A
:1004B000910509F0E8C0A6C0803C910509F4D4C0BC
:1004C000883C910509F4D0C0883B910509F0DBC058
:1004D000B1C080911C018093BB00C0C090912301EA
:1004E00080912401981778F490912301E0912101E3
:1004F000F0912201E90FF11D80818093BB009F5F85
:1005000090932301ABC085ED8093BC008091BC002B
:1005100084FDFCCFB6C080E280932C0185ED8093F2
:10052000BC008091BC0084FDFCCFABC080E3809315
:100530002C0185ED8093BC008091BC0084FDFCCF34
:10054000A0C088E380932C018FC0809123019091FB
:10055000BB00E0912101F0912201E80FF11D908391
:100560008F5F80932301909123018091240174C0B7
:10057000809123019091BB00E0912101F091220133
:10058000E80FF11D90838F5F8093230185ED8093A9
:10059000BC008091BC0084FDFCCF73C083E08093DD
:1005A0001B0110922B015AC080912B01803208F060
:1005B00057C080912B019091BB00E0912901F091EF
:1005C0002A01E80FF11D90838F5F80932B0146C0B5
:1005D00080912B01803248F480912B01E091290118
:1005E000F0912A01E80FF11D108260912B01E0913A
:1005F0001F01F09120018091290190912A0170E062
:10060000099532C084E080931B011092270110925B
:100610002801E0911D01F0911E01099580912801AA
:10062000882341F481E080932801E0912501F09135
:100630002601108290912701E0912501F091260179
:10064000E90FF11D80818093BB009F5F909327018C
:100650009091270180912801981710F485EC01C032
:1006600085E88093BC000FC085EC8093BC0009C076
:1006700010922C0185ED8093BC008091BC0084FD1C
:10068000FCCF10921B01FF91EF91BF91AF919F9111
:100690008F917F916F915F914F913F912F910F902B
:1006A0000FBE0F901F90189510921B01449A459A07
:1006B000E9EBF0E080818E7F808380818D7F808375
:1006C00088E48093B80085E48093BC0080E290E0E9
:1006D00061E070E00E948D008093210190932201DF
:1006E00080E290E061E070E00E948D00809325013F
:1006F0009093260180E290E061E070E00E948D001E
:100700008093290190932A01089587EB91E00E943C
:10071000A9048823B1F087EB91E00E94BD04AA27C9
:1007200097FDA095BA2F8093080190930901A0939B
:100730000A01B0930B0164E170E080E090E00E9458
:100740008E060E94800620912F0130913001409149
:10075000310150913201621B730B840B950B209178
:1007600008013091090140910A0150910B012617AF
:1007700037074807590768F50E94800660932F01E4
:1007800070933001809331019093320180912D015B
:1007900090912E01892B39F481E090E090932E0105
:1007A00080932D0104C010922E0110922D014091D2
:1007B00008015091090160910A0170910B0187EBCA
:1007C00091E00E9405068091060160912D010E9432
:1007D000120708958AE191E00E94B30187EB91E04E
:1007E00040E855E260E070E00E944004809106011C
:1007F00061E00E94F20608950E94B8060E94EA0392
:100800000E948503FDCF1F920F920FB60F92112405
:100810002F933F934F935F936F937F938F939F9308
:10082000AF93BF93EF93FF934091C600E091B30164
:10083000F091B401CF01019660E870E00E945F077B
:100840009C018091B5019091B6012817390739F0C4
:10085000ED5CFE4F40833093B4012093B301FF91D0
:10086000EF91BF91AF919F918F917F916F915F9128
:100870004F913F912F910F900FBE0F901F901895A1
:10088000AF92BF92CF92DF92EF92FF920F931F939E
:10089000CF93DF936C017A018B01DC011496AD904C
:1008A000BC901597CB01BA0122E030E040E050E067
:1008B0000E949407205C3D4B404F5F4FCA01B90135
:1008C000A80197010E949407C901DA010197A109C3
:1008D000B109292F3A2F4B2F552747FD5A950196DD
:1008E000A11DB11DE5012883E601EE81FF81815044
:1008F0008083EA85FB85208141E050E0CA010E84B7
:1009000002C0880F991F0A94E2F7282B2083EA85FA
:10091000FB852081CA010F8402C0880F991F0A94A9
:10092000E2F7282B2083EA85FB858081088802C0B6
:10093000440F551F0A94E2F7842B8083DF91CF91F7
:100940001F910F91FF90EF90DF90CF90BF90AF90ED
:100950000895DC011296ED91FC911397E058FF4F3A
:100960008191919180589F4F20813181821B930BFF
:1009700060E870E00E945F070895CF93DF93DC0189
:100980001296ED91FC911397EF01CE57DF4F4881FE
:100990005981E058FF4F80819181E058F0408417E1
:1009A000950719F42FEF3FEF0CC0E40FF51F2081DE
:1009B000CA01019660E870E00E945F07998388830E
:1009C00030E0C901DF91CF910895FC01A085B18588
:1009D00021898C9190E0022E02C0959587950A940A
:1009E000E2F780FFF6CF0484F585E02D608308955B
:1009F00080E191E09093B8018093B70183E391E0A7
:100A00009093BA018093B90185EC90E09093BC017A
:100A10008093BB0184EC90E09093BE018093BD0174
:100A200080EC90E09093C0018093BF0181EC90E056
:100A30009093C2018093C10186EC90E09093C40131
:100A40008093C30184E08093C50183E08093C60155
:100A500087E08093C70185E08093C80108950F93D4
:100A60001F938C01DC01ED91FC910190F081E02D50
:100A70006DE00995D801ED91FC910190F081E02D98
:100A8000C8016AE009951F910F9108952F923F9236
:100A90004F925F926F927F928F929F92AF92BF928E
:100AA000CF92DF92EF92FF920F931F93DF93CF933A
:100AB000CDB7DEB7A0970FB6F894DEBF0FBECDBF9F
:100AC0001C016A017B01411551056105710549F45D
:100AD000DC01ED91FC910190F081E02D60E309953E
:100AE00054C0882499245401422E55246624772426
:100AF00001E010E00C0F1D1F080D191DC701B60104
:100B0000A30192010E947207F80160830894811C7E
:100B1000911CA11CB11CC701B601A30192010E9446
:100B20007207C901DA016C017D01C114D104E1042D
:100B3000F104F1F681E0E82EF12CEC0EFD1EE80C3C
:100B4000F91C3E010894611C711CD501C401019778
:100B5000A109B1096C01C818D90814C0F601EE0D3D
:100B6000FF1D60816A3010F4605D01C0695CD101D5
:100B7000ED91FC910190F081E02DC101099508945F
:100B8000E108F1086E147F0449F7A0960FB6F894B7
:100B9000DEBF0FBECDBFCF91DF911F910F91FF90B0
:100BA000EF90DF90CF90BF90AF909F908F907F900D
:100BB0006F905F904F903F902F900895EF92FF922B
:100BC0000F931F93CF93DF93EC017A018B0177FF93
:100BD0000FC0E881F9810190F081E02D6DE2099567
:100BE00010950095F094E094E11CF11C011D111D7D
:100BF000CE01B801A7012AE00E944605DF91CF91FE
:100C00001F910F91FF90EF9008950F931F938C0108
:100C10000E94DE05C8010E942F051F910F910895C3
:100C20001F920F920FB60F9211242F938F939F93C1
:100C3000AF93BF938091C9019091CA01A091CB015C
:100C4000B091CC010196A11DB11D8093C901909373
:100C5000CA01A093CB01B093CC018091CD019091BA
:100C6000CE01A091CF01B091D0018050904CAF4FF8
:100C7000BF4F8093CD019093CE01A093CF01B0934D
:100C8000D00127C08091CD019091CE01A091CF01DC
:100C9000B091D00180589E43A040B0408093CD01D8
:100CA0009093CE01A093CF01B093D0018091D10158
:100CB0009091D201A091D301B091D4010196A11DD0
:100CC000B11D8093D1019093D201A093D301B09331
:100CD000D4018091CD019091CE01A091CF01B0912E
:100CE000D00181589E43A040B04060F6BF91AF91C3
:100CF0009F918F912F910F900FBE0F901F9018957D
:100D00008FB7F8942091D1013091D2014091D30155
:100D10005091D4018FBFB901CA010895EF92FF929B
:100D20000F931F937B018C018FB7F8944091D101F1
:100D30005091D2016091D3017091D4018FBF2FB730
:100D4000F8948091D1019091D201A091D301B091FA
:100D5000D4012FBF841B950BA60BB70BE816F90621
:100D60000A071B0760F71F910F91FF90EF900895FE
:100D7000789484B5826084BD84B5816084BD85B576
:100D8000826085BD85B5816085BDEEE6F0E080813D
:100D900081608083E1E8F0E08081826080838081EF
:100DA00081608083E0E8F0E0808181608083E1EB16
:100DB000F0E0808184608083E0EBF0E080818160FE
:100DC0008083EAE7F0E080818460808380818260B4
:100DD000808380818160808380818068808310929D
:100DE000C1000895282F30E0C90186569F4FFC01AD
:100DF00094912A573F4FF9018491882391F0E82F6D
:100E0000F0E0EE0FFF1FE859FF4FA591B491662364
:100E100029F48C91909589238C9308958C91892B3A
:100E20008C930895482F50E0CA0182559F4FFC01D2
:100E30002491CA0186569F4FFC0194914A575F4FF7
:100E4000FA0134913323D1F1222331F1233021F4FB
:100E5000809180008F7705C0243031F4809180002C
:100E60008F7D8093800018C0213019F484B58F776E
:100E700004C0223021F484B58F7D84BD0DC026309E
:100E800021F48091B0008F7705C0273029F480913C
:100E9000B0008F7D8093B000E32FF0E0EE0FFF1FD6
:100EA000EE58FF4FA591B491662329F48C9190954B
:100EB00089238C9308958C91892B8C93089597FBAB
:100EC000092E07260AD077FD04D049D006D000208D
:100ED0001AF4709561957F4F0895F6F79095819576
:100EE0009F4F0895A1E21A2EAA1BBB1BFD010DC046
:100EF000AA1FBB1FEE1FFF1FA217B307E407F507CA
:100F000020F0A21BB30BE40BF50B661F771F881FA5
:100F1000991F1A9469F760957095809590959B013B
:100F2000AC01BD01CF01089597FB092E05260ED017
:100F300057FD04D0D7DF0AD0001C38F450954095F7
:100F4000309521953F4F4F4F5F4F0895F6F790959D
:100F50008095709561957F4F8F4F9F4F0895AA1B85
:100F6000BB1B51E107C0AA1FBB1FA617B70710F094
:100F7000A61BB70B881F991F5A95A9F780959095C6
:100F8000BC01CD010895EE0FFF1F0590F491E02DF7
:060F90000994F894FFCF64
:100F96002000D90100000200E80300000000000064
:020FA600E50460
:00000001FF
